S015000041746D656C5F70726F6A6563742E73726563C6
S11300000C94AB070C94C8070C94C8070C94C8074D
S11300100C94C8070C94FA0F0C94C8070C94C807E6
S11300200C94C8070C94C8070C94C8070C94C80710
S11300300C94C8070C94C8070C94C8070C94C80700
S11300400C94C8070C94C8070C94C8070C94C807F0
S11300500C94C8070C94C8070C94C8070C94C807E0
S11300600C94C8070C94C807370F3F0F590F490F5A
S1130070590F590F590F590F590F590F590F590F3C
S1130080590F590F590F590F590F590F590F590F2C
S1130090590F590F590F590F590F590F590F590F1C
S11300A0590F590F310F590F590F590F590F590F34
S11300B0590F590F590F250F590F590F590F590F30
S11300C0590F590F590F590F590F590F4F0F540FFB
S11300D0FFE0FFD1AFFF32FFD0FFFEFFE0FFD1AE64
S11300E0FFD0FFFEFFE0FFD11000FFFEFFD0FFE0D6
S11300F0FFC1FFD1AED580A83FD300408D142000AE
S1130100A1C8DA1281CFD9F1DB402EA4A6AFFFD06B
S1130110FFFE01080D00FE09016102CD20FFFE0B68
S1130120FE09FE0D008032198980808080808080E5
S113013000802843839090901367874848FC48FCCC
S113014048481259892078A0A0702828F020126904
S11301508944A448101020485488126787609090FE
S113016060948874381383808080323989204040B9
S113017080808040402022398980404020202040D7
S113018040801665854830FC30481455852020F899
S11301902020114383706080165181F821338340FD
S11301A0E04002798902020408102040808012692C
S11301B0893048848484848448301259892060A01A
S11301C02020202020F81269897884840408304093
S11301D080FC126989FC04081038040484781269CC
S11301E089081828488888FC0808126989FC8080D6
S11301F0B8C40404847812698938408080B8C484FF
S11302008478126989FC0408101020204040126987
S1130210897884848478848484781269897884844D
S11302208C740404087021388840E040000040E0E9
S1130230401148882070200000706080225989088D
S11302401020408040201008146484FC0000FC123C
S113025059898040201008102040801269897884D0
S1130260840408101000101269897884849CA4AC5A
S11302709480781269893048848484FC848484124C
S11302806989F0888488F0888488F0126989788480
S113029080808080808478126989F0888484848452
S11302A08488F0126989FC808080F0808080FC1250
S11302B06989FC808080F0808080801269897884DC
S11302C08080809C848C7412698984848484FC84F6
S11302D0848484125989F820202020202020F812B8
S11302E079893E0808080808088870126989848892
S11302F090A0C0A0908884126989808080808080CA
S11303008080FC0279898282C6AA929282828212B9
S113031069898484C4A4948C8484841269897884CB
S113032084848484848478126989F8848484F88039
S1130330808080116A8A788484848484A494780474
S1130340126989F8848484F8A09088841269897871
S11303508480807804048478027989FE1010101057
S113036010101010126989848484848484848478AD
S11303700279898282444444282828100279898297
S1130380828282929292AA440279898282442810BB
S11303902844828202798982824428101010101025
S11303A0126989FC04081020408080FC224989F0ED
S11303B080808080808080F0027989808040201055
S11303C008040202124989F010101010101010F0E5
S11303D0185383205088017181FE3A228280401292
S11303E0668678047C848C74126989808080B8C4A1
S11303F08484C4B81266867884808084781269897B
S1130400040404748C84848C741266867884FC805E
S1130410847812698938444040F84040404010686C
S1130420887488887080788478126989808080B81C
S1130430C48484848412588820006020202020F8FA
S1130440105A8A08001808080808888870126989F0
S11304508080808890E090888412598960202020D0
S113046020202020F8027686EC92929292821266E4
S113047086B8C48484848412668678848484847868
S1130480106888B8C484C4B8808080106888748C6C
S1130490848C74040404126686B8444040404012BC
S11304A066867884601884781268884040F84040F2
S11304B040443812668688888888887412568688EC
S11304C0888850502002768682829292AA441266CC
S11304D0868448303048841068888484848C74040A
S11304E08478126686FC08102040FC225989384022
S11304F04020C0204040383219898080808080802C
S1130500808080125989E010102018201010E01803
S1130510538348A890FFFFFFFFFFFFFFFFFFFFFF8C
S1130520FFFFFFFFFFFFFFFFFFFFFFFFFFFFFFFFD7
S1130530FFFFFFFFFFFF0D008032198980008080DC
S113054080808080801358882070A8A0A0A8702084
S11305500279891C22207020202062DC13668684A4
S11305607848487884027989828244287C107C10F7
S113057010321989808080800080808080224A8A9D
S1130580609080609090601090602A428290900306
S11305907989384492AAA2AA9244381457877008D9
S11305A078887800F8037787122448904824121337
S11305B06484FC040404264181F00379893844925C
S11305C0AAAAB2AA44381A6181FC27448460909094
S11305D0601357872020F8202000F8164686609084
S11305E0106080F01646866090201090603A228257
S11305F0408011678784848484CCB4801269897CA8
S1130600E8E8E86828282828362181C0302282407A
S1130610C016368640C0404040E015468660909043
S11306206000F003778790482412244890027A8A65
S113063040C0404042E60A121A06027A8A40C0408C
S1130640404CF2020C101E027A8A609020109266CE
S11306500A121A06126989200020204080848478B6
S1130660126A8A20100030488484FC8484126A8AC6
S113067010200030488484FC8484126A8A30480044
S113068030488484FC8484126A8A649800304884E4
S113069084FC8484126A8A48480030488484FC8438
S11306A084126A8A30483030488484FC8484027915
S11306B0896E9090909CF090909E106B8B788480C3
S11306C08080808084781020126A8A201000FC8048
S11306D080F08080FC126A8A102000FC8080F08008
S11306E080FC126A8A304800FC8080F08080FC1212
S11306F06A8A484800FC8080F08080FC125A8A4054
S11307002000F82020202020F8125A8A102000F817
S11307102020202020F8125A8A304800F820202077
S11307202020F8125A8A888800F82020202020F8F7
S113073002798978444242E242424478027A8A64E5
S1130740980082C2A2928A8682027A8A2010007C51
S113075082828282827C027A8A0810007C8282826F
S113076082827C027A8A1824007C82828282827C41
S1130770027A8A6498007C82828282827C027A8AEB
S11307804444007C82828282827C13668684483060
S1130790304884116B8B04788C9494A4A4A4C478FA
S11307A080126A8A40200084848484848478126A53
S11307B08A10200084848484848478126A8A30486D
S11307C00084848484848478126A8A4848008484F7
S11307D08484848478125A8A1020008888502020C7
S11307E0202012698980F8848484F88080801269CA
S11307F08970888890A0988484B812698920100030
S113080078047C848C7412698908100078047C84D0
S11308108C7412698930480078047C848C74126961
S11308208964980078047C848C741269894848002F
S113083078047C848C74126A8A3048300078047C92
S1130840848C740276866C127C90926C1068887822
S1130850848080847810201269892010007884FCB8
S11308608084781269891020007884FC808478124E
S113087069893048007884FC808478126989484802
S1130880007884FC808478125989402000602020FC
S11308902020F81259892040006020202020F812DE
S11308A059896090006020202020F8125989909086
S11308B0006020202020F8126A8A4830500878848A
S11308C084848478126989649800B8C48484848494
S11308D0126989402000788484848478126989109C
S11308E0200078848484847812698930480078846C
S11308F084848478126989649800788484848478F0
S1130900126989484800788484848478135787203E
S11309102000F800202011688804788C94A4C478FE
S113092080126989402000888888888874126989BF
S11309301020008888888888741269893048008863
S113094088888888741269895050008888888888C3
S113095074106B8B1020008484848C74048478104D
S11309606A8A8080B8C48484C4B88080106B8B4841
S113097048008484848C7404847801040600FF0590
S1130980010301FA20FFFF05FF05FF0700401215D0
S1130990458080800080053242A0A0024545A0F039
S11309A0A0F0A001364640E0C020E040023545807A
S11309B02040802002454540A040A05015124280AE
S11309C08011264640808080804001264680404039
S11309D0404080023545A040E040A00235454040FB
S11309E0E040400122424080043141E01211418044
S11309F0023545202040808002354540A0E0A040DB
S1130A0002354540C04040E002354540A02040E06A
S1130A10023545E0204020C0023545A0A0E020205A
S1130A20023545E080C020C00235456080C0A0404A
S1130A30023545E02040808002354560A040A0C0DA
S1130A4002354540A06020C012144480000080019B
S1130A502545400000408002354520408040200369
S1130A603343E000E00235458040204080023545B4
S1130A70C02040004002354560A0A080600235459A
S1130A8040A0E0A0A0023545C0A0C0A0C0023545EA
S1130A9040A080A040023545C0A0A0A0C0023545BA
S1130AA0E080C080E0023545E080C08080023545AA
S1130AB06080A0A060023545A0A0E0A0A00235455A
S1130AC0E0404040E0023545202020A0400235456A
S1130AD0A0A0C0A0A002354580808080E0023545FA
S1130AE0A0E0E0A0A002354520A0E0A080023545AA
S1130AF040A0A0A040023545C0A0C0808001364679
S1130B0040A0A0A04020023545C0A0C0A0A002354E
S1130B104560804020C0023545E0404040400235F9
S1130B2045A0A0A0A0E0023545A0A0A0E040023569
S1130B3045A0A0E0E0A0023545A0A040A0A0023559
S1130B4045A0A0404040023545E0204080E0122509
S1130B5045C0808080C00235458080402020022529
S1130B6045C0404040C005324240A0013141E0153B
S1130B702242804002344460A0A06002354580C017
S1130B80A0A0C0023444608080600235452060A08B
S1130B90A06002344440A0C0600235452040E040DB
S1130BA04001354560A06020C002354580C0A0A04A
S1130BB0A00235454000C040E00136462000202018
S1130BC020C002354580A0C0A0A0023545C04040E9
S1130BD040E0023444A0E0A0A0023444C0A0A0A09D
S1130BE002344440A0A040013545C0A0C08080012B
S1130BF0354560A0A06020023444A0C08080023447
S1130C004460C020C002354540E0404020023444E6
S1130C10A0A0A060023444A0A0A040023444A0A03C
S1130C20E0A0023444A04040A0013545A0A06020CB
S1130C30C0023444E02040E00136462040C0404039
S1130C4020121545808080808001364680406040B7
S1130C50408005424250A0FFFFFFFFFFFFFFFFFF60
S1130C60FFFFFFFFFFFFFFFFFFFFFFFFFFFFFFFF90
S1130C70FFFFFFFFFFFFFFFF070040121545800045
S1130C8080808002354540E080E0400235452040C8
S1130C906040A002444490606090023545A040E06A
S1130CA04040121545808000808001364660C0A017
S1130CB06020C0063141A00146466090D0D09060CB
S1130CC002354560A06000E003434350A050033266
S1130CD042E020043141E003444460F0D060063136
S1130CE041E004334340A04002354540E04000E089
S1130CF0032444C04080C0022545C0408040801584
S1130D0022424080013545A0A0A0C0800245457024
S1130D10D0D0505014114180122242408003244408
S1130D2040C0404002354540A04000E0034343A09A
S1130D3050A0014646808080507010014646808055
S1130D40B0102030014646C0408050B010023545F6
S1130D5040004080600235458040A0E0A002354557
S1130D602040A0E0A0023545C040A0E0A0023545E7
S1130D7060C0A0E0A0023545A040A0E0A002354537
S1130D804040A0E0A002454570A0F0A0B001364666
S1130D9040A080A0408002354580E0C080E002355C
S1130DA04520E0C080E002354560E0C080E00235C7
S1130DB045A0E0C080E002354580E04040E00235D7
S1130DC04520E04040E002354540E04040E0023547
S1130DD045A0404040E0024545E050D050E0024587
S1130DE04550A0E0E0A00235458040A0A040023577
S1130DF0452040A0A0400235454040A0A040024507
S1130E004570E0A0A040023545A040A0A0400333B7
S1130E1043A040A002354560A0E0A0C00235458053
S1130E2040A0A0E00235452040A0A0E002354540A6
S1130E3000A0A0E0023545A000A0A0E002354520B6
S1130E4000A0404002354580C0A0C0800136464025
S1130E50A0C0A0E080023545804060A06002354516
S1130E60204060A060023545600060A060024545F6
S1130E7050A060A060023545A00060A06002354526
S1130E80400060A06002444470B0A0700135454049
S1130E90A08060400235458040A0C06002354520F6
S1130EA040A0C060023545C040A0C060023545A0E6
S1130EB040A0C06002354580404040E002354520F6
S1130EC0C04040E002354540A04040E0023545A026
S1130ED000C040E0023545A04060A04002454550B6
S1130EE0A0C0A0A0023545804040A0400235452066
S1130EF04040A040023545400040A040023545E056
S1130F000040A040023545A00040A04002354540C5
S1130F1000E0004002344460A0A0C0023545804097
S1130F20A0A0600235452040A0A0600235454000E5
S1130F30A0A060023545A000A0A060013646204074
S1130F40A0E020C00136468080C0A0C080013646A3
S1130F50A000A0E020C011241FBECFEFD8E0DEBF68
S1130F60CDBF11E0A0E0B1E0E2EEF0E202C00590F6
S1130F700D92AE33B107D9F722E0AEE3B1E001C080
S1130F801D92AF32B207E1F70E9425100C946F1046
S1130F900C94000080E480937C00EAE7F0E080E8B1
S1130FA08083808184608083089588EF91E00E942B
S1130FB0110E28E541E164E188EF91E00E94A60F5B
S1130FC062E171E088EF91E00E94EE0C24E131E0EF
S1130FD040E264E288EF91E00E94620C28E546E278
S1130FE064E188EF91E00E94A60F6AE779E088EF58
S1130FF091E00E94EE0C2CE131E047E362E388EFDC
S113100091E00E94620C88EF91E00E94170E81111A
S1131010D0CF0895E1E6F0E080E88083108240E0DC
S113102060E071E088EF91E00E94FB0D0E94D5071B
S113103081E008950F93FC010150040F84A996A93F
S1131040941738F0081768F481E0041740F080E042
S113105006C00817D0F081E0041708F080E0882368
S1131060C9F02150260F83A995A9961738F028179F
S113107070F481E0261770F080E00CC0281748F067
S113108081E0261738F080E005C080E003C081E0ED
S113109001C080E00F910895DB011496ED91FC915D
S11310A0159720E030E061E009950895DB0114967E
S11310B0ED91FC91159720E030E063E009950895E7
S11310C0DB011496ED91FC91159720E030E040E0AF
S11310D064E009950895DB011496ED91FC91159750
S11310E020E030E041E064E009950895DB011496C6
S11310F0ED91FC91159720E030E062E009950895A8
S1131100DB011496ED91FC91159720E030E065E049
S113111009950895DB011496ED91FC91159766E00D
S113112009950895AF92BF92CF92DF92EF92FF920A
S11311300F931F93CF93DF936C017B018A01D0E05F
S1131140B12CAA24A394F801C491D1110BC0CF3FB0
S113115009F44AC04C2FB701C6010E9480088111CE
S113116048C04BC0CF3F51F44FEFB701C6010E94B6
S11311708008882309F441C0DB2D3BC0CE3FE1F158
S1131180C03FA0F5C03E40F04C2F4F70B701C601E0
S11311900E947608DB2D2DC0C03D40F04C2F4F70CF
S11311A0B701C6010E945608DB2D23C0C03CA0F045
S11311B0B701C6010E946008C295C07FCE5FD0E02F
S11311C0CE010E947A0AB701C6010E946B08CE01C3
S11311D00E947A0ADB2D0DC0CC2354F08C2F90E0B2
S11311E00E947A0ADB2D05C0DA2D03C0DB2D01C075
S11311F0DB2D0F5F1F4FA7CF81E0DF91CF911F91B0
S11312000F91FF90EF90DF90CF90BF90AF90089533
S1131210CF93DF93FC0123A52223B1F0EC0188E7EF
S11312200E94120A882389F08EA1811105C00E94B0
S11312304F0A811106C009C080E40E944F0A882326
S113124021F01BA681E001C081E0DF91CF910895D8
S1131250CF92DF92EF92FF920F931F93CF93E42EDE
S113126089016330B1F030F4613069F0623009F41F
S11312706FC074C0663041F1673009F448C065300E
S113128009F06CC010C0FC0186A50E94CA09C1E027
S11312906AC0FC0116A221E023A7411161C00E948B
S11312A0720AC1E060C00E940809C82F811103C0FE
S11312B00E94720A58C08E2D0E944F0AC82F8111B5
S11312C051C00E94720A4FC00E940809C82F882387
S11312D021F0E11005C0C1E046C00E94720A43C07B
S11312E06801EA948E2D90E00196080F191FF6010B
S11312F081916F010E944F0AC82F811103C00E947F
S1131300720A31C0C016D10691F7C1E02CC00E9408
S11313100809C82F882321F0E11005C0C1E023C0CB
S11313200E94720A20C0EA94F12CFFEFEF1AFF0A20
S1131330E00EF11EF80184910E944F0AC82F882301
S113134091F00F5F1F4F0E151F05A1F7C1E00BC0F1
S1131350FC0146A321E023A7C1E005C0C1E003C00E
S1131360C1E001C0C1E08C2FCF911F910F91FF907C
S1131370EF90DF90CF90089590914001911104C0B7
S11313808093400160933E010895109240011092B1
S11313903E01089580933F011092B90084FF04C078
S11313A082E08093B80003C080E28093B8000E947A
S11313B0C50908951F93CF93DF9300D0CDB7DEB74F
S11313C020ED37E03A8329839091BC00982301F5FE
S11313D029813A81232B39F0ECEBF0E00EC029810E
S11313E03A81232B51F480913F01182F127081FD13
S11313F011C081E00E94BC090EC029813A812150AC
S113140031093A8329839081982349F311E003C079
S113141011E001C011E0812F0F900F90DF91CF9167
S11314201F910895CF93DF93D82F94EA9093BC0033
S113143061E080E80E94DA09C82F882361F1909165
S1131440B900987F983041F0903131F061E082E04A
S11314500E94BC09C0E01FC0D093BB0084E8809305
S1131460BC0062E080E80E94DA09C82F882399F062
S113147080913F01C82FC27081FD0AC08091B900DC
S1131480887F883139F062E082E00E94BC0903C0A1
S1131490C1E001C0C1E08C2FDF91CF910895CF93BB
S11314A08093BB0084E88093BC0063E080E80E94E2
S11314B0DA09C82F882399F080913F01C82FC270A0
S11314C081FD0AC08091B900887F883239F063E0D9
S11314D082E00E94BC0903C0C1E001C0C1E08C2FBE
S11314E0CF91089584E98093BC0064E080E10E9478
S11314F0DA090895009739F02EEC37E0F9013197B5
S1131500F1F70197D9F70895AF92BF92CF92DF9286
S1131510EF92FF920F931F93CF937C018B01C42F03
S11315206901403199F118F44A3031F03BC041313E
S113153099F1453159F036C042E00E944C084CEE16
S113154050E0B801C7010E9492082CC0FB01A280A0
S1131550B38044EE50E00E949208F5014481406B50
S1131560B801C7010E94800841E0B801C7010E9488
S11315707608A801B701C5010E949F0E8823C1F017
S113158040E0B801C7010E9456080CC04BED50E082
S11315900E94920881E00CC040ED50E00E94920845
S11315A081E006C096014C2FB801C7010E94130FB9
S11315B0CF911F910F91FF90EF90DF90CF90BF904C
S11315C0AF900895FC01E60FF11D849190E0982FEF
S11315D088273196E4918E0F911D0895FC01849122
S11315E008950E94EE0A882321F0823011F083E0EE
S11315F0089586E0089580E0089566E00E94E20A76
S1131600089568E00E94E20A08950A96FC01849114
S113161008950B96FC0184910895AF92BF92CF92E6
S1131620DF92EF92FF920F931F93CF93DF937C018E
S1131630B62EDC011496CD91DC911597CE010E9453
S1131640EE0A182FF701848195810E94F10AD82EA1
S1131650113029F40F2EFFE0AF2EF02D02C0AA2482
S1131660AA94D70114968D919C9115970E94050B0D
S1131670182FF701848195810E94090B082FD70147
S113168014968D919C9115970E94010BB0E6BB15A1
S113169030F4009721F0C80FD91F11E60FC0F701ED
S11316A0848195810E94FD0AF0E4FB1530F40097D3
S11316B021F0C80FD91F11E401C061960B1590F4F5
S11316C0D70150961C92509753961C925397549658
S11316D01C92549751961C92519752961C9280E0FA
S11316E090E075C0011708F46AC02D2D30E06E013A
S11316F0FE0194919F3F11F421965DC01B1152C0CD
S11317008E01D70114968D919C9115970E94EE0A33
S1131710882311F08230F1F4F601C490D701539676
S1131720CC925397F8013196E4915496EC935497E4
S1131730F8013396E4915096EC935097F80134965F
S1131740E4915196EC935197F8013596E4915296B1
S1131750EC9325C0FE018491982F9F709250D7017D
S113176052969C935297C82EC694C694C694C69417
S11317705196CC925197FE013196E4918E2F8F7041
S113178054968C935497E295EF705396EC93539739
S1131790FE013296E491E295EF705096EC938C2F13
S11317A09D2F15C0FE013296E491EA21C9018E0FE6
S11317B0911DC80FD91F101711F01F5F98CFF701A3
S11317C0108A138A148A118A128A80E090E0DF91C9
S11317D0CF911F910F91FF90EF90DF90CF90BF902A
S11317E0AF9008956F927F928F929F92AF92BF9223
S11317F0CF92DF92EF92FF920F931F93CF93DF93D9
S11318005C01162F642E622F0E940D0B6C01892B34
S113181009F448C0F501848195810E94F10A982E4B
S1131820F501D389C4897188710E9289691AF62CDD
S1131830FC1A0C2F2D2F4F2D672DC5010E941A085D
S1131840811103C0F50180892EC0D95FED2EE69485
S1131850E694E694CC2319F1E601C90DD11D882440
S11318608A948E0C912CFFEF8F1A9F0A11C0FE01EF
S1131870049120E04F2D612FC5010E94270E21966F
S1131880185FCC15DD0599F7E601F394F61439F0E9
S1131890EE20D9F36E01C80CD91C172DE8CFF50141
S11318A0808901C080E0DF91CF911F910F91FF905B
S11318B0EF90DF90CF90BF90AF909F908F907F90EC
S11318C06F900895CF92DF92FF920F931F93CF935F
S11318D0DF936C01C62FF42E8901DC015596ED913E
S11318E0FC9156970995F80EF8012081222381F086
S11318F00F5F1F4FD0E04F2D6C2FC6010E94F20BDB
S1131900C80FD80FD8012D918D012111F4CF01C03A
S1131910D0E08D2FDF91CF911F910F91FF90DF9039
S1131920CF900895DC0114968D919C9115970097A2
S113193009F44DC057962C91579721110DC0FC0105
S11319403596E4915896EC935897FC013C96E491B3
S11319505996EC9359971BC0213069F4FC013F96CA
S1131960E4915896EC935897FC017096E49159963B
S1131970EC9359970CC0FC013D96E4915896EC9376
S11319805897FC013E96E4915996EC9359975896D2
S11319908C915897082E000C990B59962C915997B5
S11319A0821B910927FD93955A962C915A972034BE
S11319B061F0829FC00111240024880F991F001C2C
S11319C0880F991F001C892F902D5B968C93089586
S11319D02BEF3AE0FC01368B258B0895CF93DF93F0
S11319E0FC01248135812617370749F0EC01758302
S11319F064830E94920C8BEF9AE09E8B8D8BDF9117
S1131A00CF9108951F93CF93DF93EC011D821C8225
S1131A101F821E82198681E0888782E28A871F8658
S1131A201E86FE01B3969E012F5C3F4F8FEF81937C
S1131A30E217F307E1F711E018A3CE010E94E80CC6
S1131A401F8B188E198E80E48A8F1B8E82EC9FE088
S1131A509AAB89ABDF91CF911F910895DB01ED9192
S1131A60FC91099508950F931F93CF93DF93EC0195
S1131A708B01E9A9FAA982E0099520E030E04AE067
S1131A80B801CE010E942E0D182FE9A9FAA983E00E
S1131A900995E9A9FAA980E00995812FDF91CF91F1
S1131AA01F910F9108950F931F93CF93DF93EC0130
S1131AB08B01E9A9FAA982E00995E9A9FAA981E0CB
S1131AC0099520E030E044E1B801CE010E942E0DDA
S1131AD09E012D5C3F4F47E1B801CE010E942E0DBF
S1131AE0E9A9FAA980E00995DF91CF911F910F919F
S1131AF00895EF92FF921F93CF93DF93EC017B0144
S1131B00E9A9FAA982E00995E9A9FAA981E0099568
S1131B1020E030E045E1B701CE010E942E0D182FE0
S1131B20882341F09E012D5C3F4F47E1B701CE0170
S1131B300E942E0DE9A9FAA980E00995812FDF9171
S1131B40CF911F91FF90EF900895CF93DF931F9251
S1131B50CDB7DEB79E012F5F3F4F46E40E942E0DA6
S1131B6089810F90DF91CF910895CF93DF931F92D6
S1131B70CDB7DEB79E012F5F3F4F47E40E942E0D85
S1131B8089810F90DF91CF91089520E030E048E4FF
S1131B900E942E0D0895CF93DF93EC016A817B811F
S1131BA00E94A50D88836A817B81CE010E94B50DB8
S1131BB089836A817B81CE010E94C50D8B879E013A
S1131BC02D5C3F4F6A817B8147E1CE010E942E0D3F
S1131BD0DF91CF910895CF93DF93EC016A817B81EC
S1131BE00E94330D882321F0CE010E94CB0D81E0A9
S1131BF0DF91CF910895EF92FF921F93CF93DF93DC
S1131C00EC017B01142F0E94020DFB82EA821EA7C5
S1131C10CE010E94EB0DDF91CF911F91FF90EF90C9
S1131C200895FC01628173810E94530D0895CF933E
S1131C30DF93EC01EE85FF85309709F009956A8101
S1131C407B81CE010E94790DDF91CF9108950F938E
S1131C50FC0182819381648F458F278F068F9F01BA
S1131C60245E3F4F4BE3BC01CF010E942E0D0F9128
S1131C700895FC0112828081815083831482089527
S1131C80FC0190818281890F82832181821760F413
S1131C9084818F5F84838381980F921710F09FEF64
S1131CA0920F938381E0089580E00895DC011696F5
S1131CB0ED91FC91179715968C919F01280F311D7A
S1131CC0C9011192E817F907E1F70895FC0191E0C1
S1131CD08381861708F490E031E0461708F030E07D
S1131CE0832F892B21E05281451708F420E0282313
S1131CF0832F8923822B0895DC01FB011082129625
S1131D008C911297818315968C91159781508283BB
S1131D1013968C9183830895FB01318123812130B3
S1131D2019F0233021F006C048E0430F04C0432FCC
S1131D30385001C0432F632F0E94660E0895FC01A2
S1131D40CB01BA012681378145810E948A08089512
S1131D50DC011696ED91FC91179712968C91481B15
S1131D60477081E090E002C0880F991F4A95E2F71E
S1131D70E60FF11D222321F09081892B80830895A1
S1131D8080959081892380830895FB014181FC0122
S1131D902281421770F02381241758F0FB0130810F
S1131DA0FC012581321728F4FB012481632F0E9452
S1131DB0A80E0895DF92EF92FF920F931F93CF9393
S1131DC0DF937C01EB011A818B81813049F028F08B
S1131DD0823051F0833059F00EC0D12C01E00DC097
S1131DE0DD24D39400E009C0D12C0FEF06C0DD241C
S1131DF0DA9400E002C0D12C00E0112324F4BE01E7
S1131E00C7010E94C50E9881900F988399819D0DFA
S1131E109983110F91F7DF91CF911F910F91FF904B
S1131E20EF90DF9008950F931F93CF93DF93FB01FF
S1131E30C281D38150E0FA017497E433F105C8F507
S1131E408901EC5CFF4F0C946910B901CE010E942A
S1131E508C0E882381F1B801CE010E94DA0E81E054
S1131E602BC0B901CE010E94C50E81E025C0CE0170
S1131E700E94560ECE010E94390E81E01DC0CE0193
S1131E800E94400E8823C1F0CE010E94560E81E0CC
S1131E9013C0B901CE010E947C0E81E00DC08D817A
S1131EA0F901808381E008C08981F901808381E0A0
S1131EB003C081E001C081E0DF91CF911F910F91B8
S1131EC00895CF92DF92EF92FF920F931F93CF93D7
S1131ED0DF937C01C62E142FD22E47E04217B8F4AC
S1131EE0D22FC62F0FEF20E0412F6C2FC7010E9485
S1131EF0270ED850C85FD830A8F79D2D977028E0DA
S1131F002C0D88EF8D0D887FC22EC80E01C0922F34
S1131F10992399F087E089278F5F87702FEF30E04E
S1131F20A90102C0440F551F8A95E2F7042F20E04F
S1131F30412F6C2DC7010E94270EDF91CF911F9175
S1131F400F91FF90EF90DF90CF900895EF92FF9262
S1131F500F931F93CF93DF93EC01162FF42EE22EF1
S1131F6001E00E941A08882331F02E2D4F2D612F95
S1131F70CE010E94610FDF91CF911F910F91FF90CD
S1131F80EF900895089522E02093C0009C0140E062
S1131F9050E060E472E48FE090E00E944A10215027
S1131FA031093093C5002093C40088E98093C100AF
S1131FB0E2ECF0E086E080838081808381E0089514
S1131FC0E0ECF0E0908195FFFDCF8093C60008958A
S1131FD0CF93DF93EC018881882331F021960E940E
S1131FE0E00F89918111FBCF8AE00E94E00FDF911D
S1131FF0CF9108951F920F920FB60F9211240F9054
S11320000FBE0F901F901895CF9381E084B985B9C6
S113201080E091EE0E94C30F882331F08EE291E0BC
S11320200E94E80FC1E001C0C0E00E940A088823B2
S113203029F086E391E00E94E80F01C0C0E00E940D
S1132040CA0728988C2FCF9108950E940410FFCFBF
S1132050A1E21A2EAA1BBB1BFD010DC0AA1FBB1FA8
S1132060EE1FFF1FA217B307E407F50720F0A21B1A
S1132070B30BE40BF50B661F771F881F991F1A9487
S113208069F760957095809590959B01AC01BD01B1
S1132090CF010895052E97FB1EF400940E94611051
S11320A057FD07D00E94281007FC03D04EF40C946F
S11320B0611050954095309521953F4F4F4F5F4F9C
S11320C0089590958095709561957F4F8F4F9F4FA0
S11320D00895EE0FFF1F0590F491E02D0994F894F4
S10520E0FFCF2C
S11320E2840A0601280908400000008041015500C5
S11320F238006700562D53656E73650042793A20A5
S11321025465616D20456D62656464656400554182
S11121125254204F4B004F4C4544204F4B007D
S9030000FC
