S015000041746D656C5F70726F6A6563742E73726563C6
S11300000C94142C0C94312C0C94312C0C94312C15
S11300100C94312C0C9467350C94312C0C94312CA9
S11300200C94312C0C94312C0C94312C0C94312CD8
S11300300C94312C0C94312C0C94312C0C94312CC8
S11300400C94312C0C94312C0C94312C0C94312CB8
S11300500C94312C0C94312C0C94312C0C94312CA8
S11300600C94312C0C94312CB634BE34D834C834AE
S1130070D834D834D834D834D834D834D834D8341C
S1130080D834D834D834D834D834D834D834D8340C
S1130090D834D834D834D834D834D834D834D834FC
S11300A0D834D834B034D834D834D834D834D83414
S11300B0D834D834D834A434D834D834D834D83410
S11300C0D834D834D834D834D834D834CE34D334DB
S11300D0FFE0FFD1AFFF32FFD0FFFEFFE0FFD1AE64
S11300E0FFD0FFFEFFE0FFD11000FFFEFFD0FFE0D6
S11300F0FFC1FFD1AED580A83FD300408D142000AE
S1130100A1C8DA1281CFD9F1DB402EA4A6AFFFD06B
S1130110FFFE001E2CF9F51405390C7320FFF91AA3
S1130120F915F900000014000105151514070070F5
S1130130F8F8F8F8F87070707070707070702000D3
S11301400070F870090A1414050AE380E380E38060
S1130150E380E380E380E380E380E38041000F1ADF
S1130160341402FD0E380E380E380E380E380E38A0
S11301700E380E387FFE7FFE7FFE1C701C701C70D4
S11301801C70FFFCFFFCFFFC38E038E038E038E08E
S113019038E038E038E038E00E1B361403FC070082
S11301A0070007000FD83FF87FF8F078E038E03810
S11301B0F000FE007FC03FF007F800FC003CE01CAC
S11301C0E01CF03CFFF8FFF0E780070007000700A1
S11301D0070007000F152A1402001F003F8031801A
S11301E060C060C060C071C23F8E1F3E00F803E073
S11301F01F00FCF8F1FCC38E030603060306018C02
S113020001FC00F80E122414020007A01FE03FE0D6
S11302103C60380038003C001C001E007F3C7FBC62
S1130220F3BCE1F0E0F0E0F0FFFC7FBC3F3C040BEA
S11302300B14080A7070707070E0E0E0E0E0E00712
S11302401A1A1408FB0E0E1E3C3838787070F0F041
S1130250F0E0E0F0F0F0707078383C1C1E0E0E07F1
S11302601A1A1404FBE0E0F07838383C1C1C1E1EFB
S11302701E0E0E1E1E1E1C1C3C387870F0E0E00F93
S11302800E1C1403070380038003800380638CFB2C
S1130290BE7FFC1FF00FE00FE01EF03C78783C308E
S11302A01811113314010101C00001C00001C00084
S11302B001C00001C00001C00001C000FFFF80FFB9
S11302C0FF80FFFF8001C00001C00001C00001C029
S11302D00001C00001C00001C000070A0A1405FBA8
S11302E01E1E3C3C387070E0E0C00F030614020888
S11302F0FFFEFFFEFFFE05040414070070F8F8700B
S11303000D1B361403FC00380038007800700070B0
S113031000E000E001E001C001C003800380078029
S113032007000F000E000E001C001C003C003800EB
S1130330380070007000F000E000E0000D152A1491
S113034003000F803FE07FF07070F078E038E03811
S1130350E038E038E038E038E038E038E038E038D9
S1130360E038F07870707FF03FE00F800D152A14AC
S1130370040003000F007F00FF00FF006700070078
S11303800700070007000700070007000700070031
S1130390070007000700FFF8FFF8FFF80E152A14FE
S11303A0020007C01FF03FF8783C701C701C701CE2
S11303B0001C0038007800F001E003C007800F0043
S11303C01E003C007800FFFCFFFCFFFC0F152A1404
S11303D0020007E01FF07FF8783C701C001C001C32
S11303E0003C07F807F007F8007C001C000E000E24
S11303F0000E001EE03CFFFCFFF83FE00E152A143F
S1130400020000F001F001F003F007F007700F7034
S11304100E701E701C70387078707070FFFCFFFCDA
S1130420FFFC0070007003FC03FC03FC0F152A148E
S113043002003FFC3FFC3FFC380038003800380025
S11304403FE03FF83FFC387C001E000E000E000E1B
S1130450000E401EF03CFFF87FF81FE00E152A1432
S1130460030001F807F80FF81F003C007800700043
S11304707000E3C0EFF0FFF0F878F03CE01CE01C03
S1130480F01C703C78787FF83FF00FC00E152A14EA
S11304900200FFFCFFFCFFFCE03CE038E0380038E1
S11304A000780070007000F000E000E001E001C09E
S11304B001C003C003800780070007000E152A143B
S11304C003000F803FE07FF07070E038E038E038E0
S11304D070707FF03FE03FF07CF8F03CE01CE01CE3
S11304E0E01CE01CF87C7FF83FF00FC00E152A14C6
S11304F003000F803FE07FF078F0F078E038E03CD4
S1130500E03CE03CF07C78FC3FDC3F9C0F3C003856
S11305100078007061F0FFE0FF807E00050F0F148B
S1130520070070F8F8700000000000000070F8F890
S1130530700813131405FC0E1F1F0E0000000000AA
S1130540001E1E3C387870E0E0C01213391400001D
S11305500001C00003C0000FC0003F8000FE000186
S1130560F80007E0001F80007F0000FC00007F000F
S1130570001F800007E00001F80000FE00003F803B
S1130580000FC00003C00001C011091B140105FFC6
S1130590FF80FFFF80FFFF800000000000000000DC
S11305A000FFFF80FFFF80FFFF801213391401005A
S11305B0E00000F00000FC00007F00001FC0000706
S11305C0E00001F800007E00003F80000FC0003F03
S11305D080007E0001F80007E0001FC0007F0000DB
S11305E0FC0000F00000E000000D14281403001FBC
S11305F0C07FE0FFF0E0F8E038E038003800780031
S1130600F003F007C00780070007000000000000A7
S11306100007000F8007000E172E1403FE0FC01FE3
S1130620E0387070306030E030C030C1F0C7F0C6E0
S113063030CC30CC30CC30CE30C7FCC3BCC000E0B2
S1130640006000703038701FE00FC015143C14FFB8
S1130650001FF0001FF8001FF80001DC0001DC009F
S113066001DC00038E00038E00038E0007070007E1
S113067007000707000FFF800FFF801FFFC01C014A
S1130680C01C01C0FF8FF8FF8FF8FF8FF812143CD5
S1130690140100FFF800FFFE00FFFF001C07801C90
S11306A003801C03801C03801C07801FFF001FFCA9
S11306B0001FFE001C0F801C03C01C01C01C01C0D5
S11306C01C01C01C03C0FFFF80FFFF00FFFC0012E1
S11306D0143C14010003F9800FFF801FFF803E0FBC
S11306E080780780700380F00380E00000E0000061
S11306F0E00000E00000E00000E00000E00000F0A6
S113070000007803807C07C03FFF801FFF0007FCC8
S11307100011143C140100FFE000FFF800FFFC008E
S1130720383E00380F003807003807803803803817
S1130730038038038038038038038038038038030B
S113074080380780380700381F00FFFE00FFFC00D8
S1130750FFF00011143C140100FFFF00FFFF00FF35
S1130760FF001C07001C07001C07001C77001C70FE
S1130770001FF0001FF0001FF0001C70001C700030
S11307801C03801C03801C03801C0380FFFF80FF6C
S1130790FF80FFFF8011143C140100FFFF80FFFF66
S11307A080FFFF801C03801C03801C03801C73805B
S11307B01C70001FF0001FF0001FF0001C70001CD4
S11307C070001C00001C00001C00001C0000FFE066
S11307D000FFE000FFE00011143C14020003F300EA
S11307E00FFF001FFF003C0F00780700700700F0A8
S11307F00700E00000E00000E00000E00000E0FF8F
S113080080E0FF80E0FF80F007007007007C0F00AD
S11308103FFF001FFE0007F80011143C140100FF05
S11308207F80FF7F80FF7F80380E00380E00380EF7
S113083000380E00380E003FFE003FFE003FFE0071
S1130840380E00380E00380E00380E00380E00380E
S11308500E00FF7F80FF7F80FF7F800D142814032C
S113086000FFF8FFF8FFF80700070007000700077C
S1130870000700070007000700070007000700073C
S1130880000700FFF8FFF8FFF811143C14020007FA
S1130890FF8007FF8007FF80003800003800003821
S11308A000003800003800003800003800E038004C
S11308B0E03800E03800E03800E03800E07800F08C
S11308C0F000FFF0007FE0001F800013143C1401CF
S11308D000FF9FC0FF9FC0FF9FC01C0F001C1E0095
S11308E01C3C001C78001CF0001FE0001FF0001FDF
S11308F0F8001E7C001C3C001C1E001C0E001C0F7B
S1130900001C0700FF87E0FF87E0FF87E011143C2D
S1130910140100FFE000FFE000FFE0000E00000E05
S113092000000E00000E00000E00000E00000E007D
S1130930000E00000E03800E03800E03800E038061
S11309400E03800E0380FFFF80FFFF80FFFF8015F2
S1130950143C14FF00FC01F8FC01F8FE03F83E030C
S1130960E03F07E03F07E03B8EE03B8EE03BDEE00C
S113097039DCE039DCE038F8E038F8E038F8E03821
S113098070E03870E03800E0FF07F8FF07F8FF0771
S1130990F813143C140000F81FE0FC1FE0FE1FE0F5
S11309A03E03803F03803F03803B83803BC3803909
S11309B0C38039E38038F380387380387B80383BD8
S11309C080381F80381F80380F80FF0780FF078022
S11309D0FF038012143C14010003F0000FFC001FFD
S11309E0FE003C0F00780780700380F003C0E00134
S11309F0C0E001C0E001C0E001C0E001C0E001C00E
S1130A00F003C07003807807803C0F001FFE000FC6
S1130A10FC0003F00011143C140100FFF800FFFE79
S1130A2000FFFF001C0F001C03801C03801C0380BC
S1130A301C03801C07801C0F001FFE001FFC001FEE
S1130A40F0001C00001C00001C00001C0000FFE063
S1130A5000FFE000FFE00012194B1401FB03F0005B
S1130A600FF8001FFE003C0F00780780700380F031
S1130A7003C0E001C0E001C0E001C0E001C0E0014A
S1130A80C0E001C0E001C07003807807803C0F0023
S1130A901FFE000FFC0007F0000E00001FE1C03F26
S1130AA0FFC03FFFC0383F0014143C140100FFF89E
S1130AB000FFFE00FFFF001C0F001C07801C0380CA
S1130AC01C03801C07801C0F001FFE001FFC001F5E
S1130AD0F8001C3C001C1E001C0F001C07801C039B
S1130AE0C0FF83F0FF81F0FF81F00F14281402008F
S1130AF00FCC3FFC7FFCF07CE01CE01CF01CF800F9
S1130B007F003FE00FF801FC003EE01EE00EE00E27
S1130B10F01EFFFCFFF8E7E011143C140100FFFF96
S1130B2080FFFF80FFFF80E1C380E1C380E1C380D9
S1130B30E1C380E1C380E1C38001C00001C00001C2
S1130B40C00001C00001C00001C00001C00001C01C
S1130B50003FFE003FFE003FFE0013143C14000063
S1130B60FF1FE0FF1FE0FF1FE038038038038038D9
S1130B7003803803803803803803803803803803C7
S1130B80803803803803803803803803801C0700D2
S1130B901F1F000FFE0007FC0001F00015143C1499
S1130BA0FF00FF8FF8FF8FF8FF8FF81C01C01C01B6
S1130BB0C01E03C00E03800E038007070007070052
S1130BC0078F00038E00038E0003DE0001DC0001AA
S1130BD0DC0000F80000F80000F8000070001314B6
S1130BE03C140000FF1FE0FF1FE0FF1FE07001C086
S1130BF07001C070E1C070E1C071F1C039F3803997
S1130C00F3803BBB803BBB803BBB803F1F803F1FCF
S1130C10801E0F001E0F001E0F001C07001C070083
S1130C2013143C140000FF1FE0FF1FE0FF1FE03C13
S1130C3007801E0F000F1E0007BC0003F80001F020
S1130C400000E00001F00003F80007BC000F1E00E4
S1130C500E0E001E0F003C0780FF1FE0FF1FE0FF89
S1130C601FE013143C140000FF1FE0FF1FE0FF1FF0
S1130C70E03C07800E0E000F1E00071C0007BC009E
S1130C8003F80001F00001F00000E00000E00000C3
S1130C90E00000E00000E00000E0000FFE000FFEB6
S1130CA0000FFE000F14281402007FFC7FFC7FFC61
S1130CB0703C7038707870F071E001C003C0078038
S1130CC00F000E0E1E0E3C0E780E700EFFFEFFFE81
S1130CD0FFFE071A1A1408FBFEFEFEE0E0E0E0E067
S1130CE0E0E0E0E0E0E0E0E0E0E0E0E0E0E0E0FEE2
S1130CF0FEFE0D1B361403FCE000E000F000700063
S1130D007000380038003C001C001C000E000E006F
S1130D100F00070007800380038001C001C001E0C9
S1130D2000E000E000700070007800380038071A16
S1130D301A1404FBFEFEFE0E0E0E0E0E0E0E0E0E0A
S1130D400E0E0E0E0E0E0E0E0E0E0EFEFEFE0D0BF3
S1130D501614030B0200070007000F801FC03DE0BC
S1130D6038E078F0F078E038E0381403091400F93A
S1130D70FFFFF0FFFFF0FFFFF0060606140610C0A9
S1130D80E070381C0C100F1E1402001FE07FF87F67
S1130D90FC703C001C001C0FFC7FFC7FFCF01CE082
S1130DA01CE07CFFFF7FDF3F9F13153F140000FC16
S1130DB00000FC0000FC00001C00001C00001C00E3
S1130DC0001C7C001DFF001FFF801F87C01E01C088
S1130DD01E01E01C00E01C00E01C00E01C00E01E02
S1130DE001C01F03C0FFFF80FFFF00FCFE00100FC7
S1130DF01E14020007E61FFE3FFE7C3E700EE00E4E
S1130E00E00EE000E000E000F006780F7FFE3FFC1B
S1130E100FF013153F140100003F00003F00003F96
S1130E200000070000070000070007E7001FFF009D
S1130E303FFF007C3F00700F00F00F00E00700E070
S1130E400700E00700E00700700F007C3F003FFF51
S1130E50E01FF7E007E7E0120F2D14010003F00094
S1130E600FFC001FFE003E1F00780780700380FF08
S1130E70FF80FFFF80FFFF80F000007800007E030A
S1130E80803FFFC01FFF8007FE0010152A140300D7
S1130E9001FF07FF07FF0F000E000E00FFFCFFFC21
S1130EA0FFFC0E000E000E000E000E000E000E00E1
S1130EB00E000E00FFFCFFFCFFFC1216421401F9A9
S1130EC007CFC01FFFC03FFFC07C7E00701E00F034
S1130ED01E00E00E00E00E00E00E00F01E00701E8A
S1130EE000787E003FFE001FEE000FCE00000E00D3
S1130EF0000E00001E00003C001FFC001FF8001F35
S1130F00E00012153F140100FC0000FC0000FC008E
S1130F10001C00001C00001C00001CF8001DFC004C
S1130F201FFE001F0F001E07001C07001C07001CEB
S1130F3007001C07001C07001C07001C07007F1F7C
S1130F40C07F1FC07F1FC00F152A1403000780072E
S1130F508007800780000000007F807F807F8003FF
S1130F608003800380038003800380038003800365
S1130F7080FFFEFFFEFFFE0C1C381403F903C003C0
S1130F80C003C003C000000000FFF0FFF0FFF0004A
S1130F9070007000700070007000700070007000CD
S1130FA07000700070007000700070007000F0FF3E
S1130FB0E0FFC0FF8011153F140100FC0000FC009D
S1130FC000FC00001C00001C00001C00001CFF00B2
S1130FD01CFF001CFF001C78001CF0001DE0001F1B
S1130FE0C0001FC0001FE0001DF0001CF8001C7CA6
S1130FF000FC3F80FC3F80FC3F800F152A14030057
S11310007F807F807F800380038003800380038050
S113101003800380038003800380038003800380B4
S113102003800380FFFEFFFEFFFE140F2D1401005A
S1131030F38F00FFFF80FFFFC078F1C070E1C07044
S1131040E1C070E1C070E1C070E1C070E1C070E166
S1131050C070E1C0FCF9F0FCF9F0FCF9F0110F2DBF
S1131060140200F9F000FBF800FFFC003E1E003CF7
S11310700E00380E00380E00380E00380E00380E00
S113108000380E00380E00FE3F80FE3F80FE3F8099
S1131090110F2D14020007F0001FFC003FFE007822
S11310A00F00700700F00780E00380E00380E00396
S11310B080F00780700700780F003FFE001FFC00DF
S11310C007F0001316421400F9FC7C00FDFF00FF3A
S11310D0FF801F03C01E01E01C00E01C00E01C0098
S11310E0E01C00E01C01E01E01C01F07C01FFF80C0
S11310F01DFE001C78001C00001C00001C00001CCD
S11311000000FFC000FFC000FFC00013164214011E
S1131110F907E7E01FFFE03FFFE07C3F00700F00AE
S1131120F00F00E00700E00700E00700F00F007098
S11311300F007C3F003FFF001FF70007C7000007B8
S113114000000700000700000700007FE0007FE0C8
S1131150007FE0110F2D1402007E3E007EFF007F11
S1131160FF800FC7000F02000F00000E00000E00EA
S1131170000E00000E00000E00000E0000FFFC0038
S1131180FFFC00FFFC000F0F1E1403000FEC3FFCDC
S11311903FFC783C701C78007FC03FF80FFCE03EB9
S11311A0E00EF81EFFFCFFF8E7E01014281402001C
S11311B01C001C001C001C001C00FFFCFFFCFFFCAE
S11311C01C001C001C001C001C001C001C001C0635
S11311D01E1F1FFF0FFE03F0120F2D140100FC3F12
S11311E000FC3F00FC3F001C07001C07001C07001C
S11311F01C07001C07001C07001C07001C07001E1E
S11312001F001FFFC00FFFC007F7C0130F2D1400EE
S113121000FF1FE0FF1FE0FF1FE03C07001C07006A
S11312201E0E000E0E000F1C00071C0007B8000362
S1131230B80003F00001F00001E00000E000130F2B
S11312402D140000FE0FE0FE0FE0FE0FE038E380F7
S113125038E38039F3803DF7801DF7001FBF001F7E
S11312601F001F1F000F1E000E0E000E0E000E0E9C
S113127000110F2D140100FE3F80FE3F80FE3F80D1
S11312803C1C001E38000F700007E00003E0000360
S1131290F0000778000E3C001C1E00FE3F80FE3F5D
S11312A080FE3F801316421401F9FF1FE0FF1FE088
S11312B0FF1FE03C03801C07001E07000E0E000FFA
S11312C00E00071C00079C0003B80003F80001F09F
S11312D00001F00000E00000E00001C00001C000D7
S11312E00380007FF0007FF0007FF0000D0F1E14DC
S11312F00400FFF8FFF8FFF8E0F0E1E0E3C0078046
S11313000F001E003C007838F038FFF8FFF8FFF8B3
S1131310091A341405FB07800F800F801E001C007F
S11313201C001C001C001C001C001C003C00F800DD
S1131330F800FC001C001C001C001C001C001C000D
S11313401C001C001F800F800780031A1A1408FB5E
S1131350E0E0E0E0E0E0E0E0E0E0E0E0E0E0E0E089
S1131360E0E0E0E0E0E0E0E0E0E0091A341405FB4E
S1131370F000F800F8003C001C001C001C001C00DD
S11313801C001C001C001E000F800F801F801C000E
S11313901C001C001C001C001C001C001C00FC0089
S11313A0F800F0000F070E1402060C003F0E7F8EAB
S11313B0F7DEE3FCE1F80060FFFFFFFFFFFFFFFF44
S11313C0FFFFFFFFFFFFFFFFFFFFFFFFFFFFFFFF29
S11313D0FFFFFFFFFFFFFFFFFF00000014000105F8
S11313E015151407F970F8F87000007070707070BB
S11313F0707070F8F8F8F8F870200D172E1403FFC9
S1131400070007000700070007000FD83FF87FF820
S11314107878F038E038E000E000E000F0387878E0
S11314207FF83FF00FC00700070007000700101403
S11314302814010003E007F00FF81E381C381C00C4
S11314401C001C000E00FFE0FFE0FFE00E000E0099
S11314500E000E021E077FFF7FFF7FFE0F0F1E147C
S11314600202E00EF7DEFFFE7FFC3C78783C701C45
S1131470701C701C783C3C787FFCFFFEF7DEE00EAD
S113148011143C140100FE3F80FE3F80FE3F803873
S11314900E001C1C001E3C000E38000F7800077064
S11314A00003E0001FFC001FFC0001C0001FFC0043
S11314B01FFC0001C00001C0001FFC001FFC001F36
S11314C0FC00031A1A1408FBE0E0E0E0E0E0E0E0CE
S11314D0E0E0E0E00000E0E0E0E0E0E0E0E0E0E0C8
S11314E0E0E01018301402FD01FE07FE0FFE1C069A
S11314F0180618063C007F00E780C1E060F0703CED
S11315003C0E0F06078301E700FE003C301830183C
S113151030383FF03FE03F800B040814041160C0F2
S1131520F1E0F1E060C015143C14FF0000FC00037E
S1131530FF000FFFC01E03E03860E071F67073FE19
S113154070E79E38E70E38CE0E38CE0038CE00381D
S1131550CE0638E70F78E7FE7073FCF078F1E03ED2
S113156007C01FFF0007FC000B0E1C1404061F001D
S11315707F80618001803F807F80E180C180C38063
S1131580FFE07DE00000FFE0FFE00F0E1C1401000F
S11315900306070E0E1C1C38387070E0E1C0E1C071
S11315A070E038701C380E1C070E03061008101467
S11315B00205FFFFFFFFFFFF00070007000700070A
S11315C000070F0306140208FFFEFFFEFFFE1514BA
S11315D03C14FF0001F80007FE001FFF803C03C01D
S11315E03BF1E073FCE073FEF0E39E70E38E78E37E
S11315F08E38E3FE38E3FC38E3B838F3BC78739EE6
S1131600707B8FF03C03E01FFFC00FFF0003FC0062
S11316100A0204140511FFC0FFC009091214050BC6
S11316201C007700C180808080808080C18077002A
S11316301C0011123614010001C00001C00001C0D9
S11316400001C00001C00001C000FFFF80FFFF8057
S1131650FFFF8001C00001C00001C00001C0000103
S1131660C00001C000FFFF80FFFF80FFFF80080E65
S11316700E1405073C7EE7C303070E0C183870E10F
S1131680FFFF090E1C1405073E007F0063000300E2
S113169007001E001F00038001800180C180E30059
S11316A07F003C0008060614060F060F3E78E04053
S11316B01216421401F9FC3F00FC3F00FC3F001CE1
S11316C007001C07001C07001C07001C07001C0760
S11316D0001C07001C0F001E1F001FFFC01FF7C0C7
S11316E01DE7C01C00001C00001C00001C00001CA6
S11316F000001C00001C00000F18301402FD0FFE37
S11317003FFE7B18F318E318E318E318E318E31813
S113171073183F181F180318031803180318031825
S113172003180318031803181F3E1F3E1F3E050429
S11317300414070870F8F8700507071406FA303027
S11317403018F8F870080D0D14060738F8D8181872
S1131750181818181818FFFF0B0E1C1404060E0096
S11317603F8071C0E0E0C060C060C060E0E071C074
S11317703F800E000000FFE0FFE00F0E1C1402008B
S1131780C180E1C070E038701C380E1C070E070ED3
S11317900E1C1C38387070E0E1C0C18013143C1476
S11317A00000380000F80000D800801801C01801BB
S11317B080180300180600180C00181CC01819C063
S11317C0FF33C0FF72C00066C000CEC0018CC003EE
S11317D09FE0071FE00200C00001E00001E01314D5
S11317E03C140000380000F80000D802001807007C
S11317F0180E00180C00181800183800187000187B
S11318006780FEEFC0FFDCE00198600300E00701A1
S1131810C00E0780040E00001C60001FE0001FE0E3
S113182013153F1400003E00007F00006300000316
S113183001000303801E07001F0600038E00019CA5
S113184000C398C0E331C07F73C01C62C000C6C02F
S113185001CEC0038CC0071FE0021FE00000C000DF
S113186003E00003E00D152A1403FA07000F800FAC
S11318708007000000000000000700070007001FA9
S1131880003F007C00F000E000E038E038F0387FF2
S1131890F83FF81FE0151A4E14FF000300000780FC
S11318A00001E00000F0000030000000001FF00024
S11318B01FF8001FF80001FC0001DC0001DC00033C
S11318C0DE00038E00038E000707000707000707EA
S11318D0000FFF800FFF801FFFC01C01C01C01C050
S11318E0FF8FF8FF8FF8FF8FF8151A4E14FF0000D2
S11318F00300000F00001E000078000060000000DC
S1131900001FF0001FF8001FF80001FC0001DC00BC
S113191001DC0003DE00038E00038E0007070007CE
S113192007000707000FFF800FFF801FFFC01C0187
S1131930C01C01C0FF8FF8FF8FF8FF8FF8151A4EF7
S113194014FF0000400000E00003B800071C000E74
S11319500E000000001FF0001FF8001FF80001FC3B
S11319600001DC0001DC0003DE00038E00038E00B6
S11319700707000707000707000FFF800FFF801FFE
S1131980FFC01C01C01C01C0FF8FF8FF8FF8FF8F40
S1131990F815194B14FF0003860007E600067600CD
S11319A0061C000000001FF0001FF8001FF80001D3
S11319B0FC0001DC0001DC0003DE00038E00038E6A
S11319C0000707000707000707000FFF800FFF80CD
S11319D01FFFC01C01C01C01C0FF8FF8FF8FF8FF60
S11319E08FF815194B14FF000C18001E3C001E3C08
S11319F0000C18000000001FF0001FF8001FF80082
S1131A0001FC0001DC0001DC0003DE00038E0003A6
S1131A108E000707000707000707000FFF800FFF6E
S1131A20801FFFC01C01C01C01C0FF8FF8FF8FF88E
S1131A30FF8FF8151A4E14FF0000F0000198000102
S1131A40080001980000F0000000001FF0001FF8DB
S1131A50001FF80001FC0001DC0001DC0003DE00D3
S1131A60038E00038E000707000707000707000F17
S1131A70FF800FFF801FFFC01C01C01C01C0FF8F2F
S1131A80F8FF8FF8FF8FF814143C1400001FFFE0D8
S1131A901FFFE01FFFE00770E00770E00670E00E34
S1131AA070E00E73000E73000E7F001C7F001C7329
S1131AB0001FF3001FF300387070387070387070B6
S1131AC0FFFFF0FFFFF0FFFFF0111A4E1401FA03BD
S1131AD0E3000FFF001FFF003E1F00780F00700798
S1131AE000F00700E00000E00000E00000E000007B
S1131AF0E00000E00000F000007001007803803E88
S1131B000F803FFF000FFE0003F80000C00000C07C
S1131B100000E00004700007F00003E000111A4E1A
S1131B2014010003000007800001E00000F0000041
S1131B303000000000FFFF00FFFF00FFFF001C0754
S1131B40001C07001C07001C77001C70001FF0001D
S1131B501FF0001FF0001C70001C70001C03801C90
S1131B6003801C03801C0380FFFF80FFFF80FFFFB6
S1131B7080111A4E140100000C00003C0000780093
S1131B8001E000018000000000FFFF00FFFF00FFF4
S1131B90FF001C07001C07001C07001C77001C70BA
S1131BA0001FF0001FF0001FF0001C70001C7000EC
S1131BB01C03801C03801C03801C0380FFFF80FF28
S1131BC0FF80FFFF80111A4E14010000800001C045
S1131BD0000770000E38001C1C00000000FFFF000E
S1131BE0FFFF00FFFF001C07001C07001C07001C70
S1131BF077001C70001FF0001FF0001FF0001C7025
S1131C00001C70001C03801C03801C03801C0380C8
S1131C10FFFF80FFFF80FFFF8011194B14010006B6
S1131C200C000F1E000F1E00060C00000000FFFF3A
S1131C3000FFFF00FFFF001C07001C07001C07003B
S1131C401C77001C70001FF0001FF0001FF0001C28
S1131C5070001C70001C03801C03801C03801C0388
S1131C6080FFFF80FFFF80FFFF800D1A3414030004
S1131C7018003C000F00078001800000FFF8FFF807
S1131C80FFF8070007000700070007000700070028
S1131C900700070007000700070007000700FFF818
S1131CA0FFF8FFF80D1A34140300003000F001E0CF
S1131CB0078006000000FFF8FFF8FFF807000700A0
S1131CC007000700070007000700070007000700D8
S1131CD00700070007000700FFF8FFF8FFF80D1AD8
S1131CE034140300020007001DC038E070700000C7
S1131CF0FFF8FFF8FFF807000700070007000700D8
S1131D000700070007000700070007000700070097
S1131D100700FFF8FFF8FFF80D19321403003060D4
S1131D2078F078F030600000FFF8FFF8FFF8070063
S1131D300700070007000700070007000700070067
S1131D4007000700070007000700FFF8FFF8FFF887
S1131D5011143C140200FFE000FFF800FFFC0038FF
S1131D603E00380F00380700380700380380FF832F
S1131D7080FF8380FF8380380380380380380380AA
S1131D80380700380700381E00FFFE00FFFC00FF84
S1131D90F00014194B14FF0003860007E6000676D2
S1131DA000061C00000000FC1FF0FE1FF0FF1FF0E7
S1131DB01F01C01F81C01F81C01DC1C01DE1C01C07
S1131DC0E1C01CF1C01C79C01C39C01C3DC01C1DE5
S1131DD0C01C0FC01C0FC01C07C07FC7C07FC3C07E
S1131DE07FC1C0111A4E1401000600000F00000349
S1131DF0C00001E00000600000000007F0000FFCDC
S1131E00001FFC003C1E00780F00700700700700E4
S1131E10E00380E00380E00380E00380E00380E0EF
S1131E200380700700780700380E003E3E001FFC58
S1131E30000FF80003E000111A4E1401000018000E
S1131E4000780000F00003C0000300000000000759
S1131E50F0000FFC001FFC003C1E00780F00700710
S1131E6000700700E00380E00380E00380E003806B
S1131E70E00380E00380700700780700380E003E1E
S1131E803E001FFC000FF80003E000111A4E14017D
S1131E900000800001C0000770000E38001C1C0008
S1131EA000000007F0000FFC001FFC003C1E00783F
S1131EB00F00700700700700E00380E00380E00378
S1131EC080E00380E00380E003807007007807006F
S1131ED0380E003E3E001FFC000FF80003E0001126
S1131EE0194B140100070C000FCC000CEC000C384B
S1131EF00000000007F0000FFC001FFC003C1E0067
S1131F00780F00700700700700E00380E00380E0B2
S1131F100380E00380E00380E0038070070078071B
S1131F2000380E003E3E001FFC000FF80003E000E6
S1131F3011194B1401000C18001E3C001E3C000C2F
S1131F40180000000007F0000FFC001FFC003C1EFE
S1131F5000780F00700700700700E00380E0038042
S1131F60E00380E00380E00380E0038070070078F2
S1131F700700380E003E3E001FFC000FF80003E08F
S1131F80000F1020140200E00EF01EF83E783C3CD6
S1131F90781EF00FE007C007C00FE01EF03C787811
S1131FA03CF83EF01EE00E1117451401FE000380BC
S1131FB003E3800FFF801FFF003E3E00381E0078C1
S1131FC03F00707F00E07B80E0F380E1E380E1C3C9
S1131FD080E3C380E78380FF07807E07007E0F00D5
S1131FE03C1E007FFC007FF800F7F000E00000E0FA
S1131FF00000131A4E14000003000007800001E0E3
S11320000000F000003000000000FF1FE0FF1FE0B0
S1132010FF1FE0380380380380380380380380389A
S11320200380380380380380380380380380380302
S1132030803803803803801C07801F1F000FFE00B8
S113204007FC0001F800131A4E140000001C0000E5
S11320503C0000F00001E000018000000000FF1FD0
S1132060E0FF1FE0FF1FE03803803803803803805F
S1132070380380380380380380380380380380387D
S113208003803803803803803803801C07801F1FB7
S1132090000FFE0007FC0001F800131A4E140000A4
S11320A000400000E00003B800071C000E0E000012
S11320B00000FF1FE0FF1FE0FF1FE038038038032C
S11320C080380380380380380380380380380380E5
S11320D03803803803803803803803803803801C39
S11320E007801F1F000FFE0007FC0001F800131AF1
S11320F04E140000060C000F1E000F1E00060C00FC
S1132100000000000000FFBFE0FFBFE0FFBFE038B9
S11321100380380380380380380380380380380311
S11321208038038038038038038038038038038084
S11321303803801C07801F1F000FFE0007FC0001EE
S1132140F800111A4E14010000180000780000F085
S11321500003C000030000000000FE3F80FE3F803B
S1132160FE3F803C1E001C1C001E3C000E38000F6D
S1132170780007F00003E00003E00001C00001C0A4
S11321800001C00001C00001C00001C0001FFC002C
S11321901FFC001FFC0012143C140100FF8000FF10
S11321A08000FF80001C00001FF8001FFE001FFFBE
S11321B0001C0F801C03801C03C01C03C01C038074
S11321C01C0F801FFF001FFE001FF8001C0000FFF3
S11321D08000FF8000FF80001116421400FF03E01E
S11321E00007F0000FF8001E3C001C1C001C1C0023
S11321F01C1C001C3C001DF8001DF8001DFE001CEA
S11322001F001C0F001C07801C03801C03801DC3BF
S1132210801DC380FFFF00FEFF00FE7E000018004B
S11322201116421402001800003C00000F000007C1
S113223080000180000000000000000FE0003FF07B
S1132240003FF800383C00001C00001C000FFC009C
S11322503FFC007FFC00781C00F01C00E07C00FFC9
S1132260FF807FFF803F9F801116421402000020F0
S11322700000700000F00003C000078000060000AA
S11322800000000FE0003FF0003FF800383C000081
S11322901C00001C000FFC003FFC007FFC00781CAD
S11322A000E03C00E07C00FFFF807FDF803F9F80F8
S11322B011164214010000800001C0000770000ED6
S11322C038001C1C0000000000000007E0003FF084
S11322D0003FF8003C3C00001C00001C000FFC0008
S11322E03FFC007FFC00781C00F01C00E03C00FF79
S11322F0FF807FFF803F9F8011153F1401000E185F
S1132300001F980019F80018700000000000000079
S11323100FE0003FF0003FF800383C00001C0000D4
S11323201C000FFC003FFC007FFC00781C00F01C2C
S113233000E07C00FFFF807FDF803F9F8011153F1E
S11323401402000C18001E3C001E3C000C18000077
S113235000000000000FE0003FF0003FF800383CB0
S113236000001C00001C000FFC003FFC007FFC0070
S1132370781C00F01C00E07C00FFFF807FDF803FC2
S11323809F8011153F14010003C000066000042063
S11323900006600003C0000000000FE0003FF000F2
S11323A03FF800383C00001C00001C000FFC003FFC
S11323B0FC007FFC00781C00F01C00E07C00FFFFA8
S11323C0807FDF803F9F80140F2D14FF000F870054
S11323D03FFFC03FFFC038FDE000707003F0701F86
S11323E0FFF07FFFF0FFFFF0F07000E07800F1F8FD
S11323F0707FFFF03FFFF01F278010152A1402FAA8
S113240007E61FFE3FFE7C3E700EF00EE00EE0007D
S1132410E000E000F0067C0F3FFE1FFC07F00180A7
S1132420018001C008E00FC0038010152A140100C8
S113243006000F0003C001E00060000007E01FF881
S11324403FFC7C3E700EF00FFFFFFFFFFFFFE0003C
S113245070007C0F3FFF1FFE07F010162C140100C4
S113246000100038007801E003C00300000007E01A
S11324701FF83FFC7C3E700EF00FFFFFFFFFFFFFD5
S1132480E00070007C0E3FFF1FFE07F010162C14B6
S11324900100008001C007700E381C1C0000000001
S11324A007E01FF83FFC7C3E700EF00FFFFFFFFFBC
S11324B0FFFFE00070007C1F3FFF1FFF07F01015B7
S11324C02A1401000C181E3C1E3C0C1800000000CD
S11324D007E01FF83FFC7C3E700EF00FFFFFFFFF8C
S11324E0FFFFE00070007C1F3FFF1FFF07F00F1687
S11324F02C14020018003C000F000780018000002B
S113250000007F807F807F800380038003800380BE
S113251003800380038003800380FFFEFFFEFFFE31
S11325200F172E140200008001C003C00F001E000C
S11325301800000000007F807F807F80038003807C
S11325400380038003800380038003800380FFFEF5
S1132550FFFEFFFE0F162C140200020007001DC030
S113256038E07070000000007F807F807F800380EF
S1132570038003800380038003800380038003803F
S1132580FFFEFFFEFFFE0F152A140200306078F0F4
S113259078F03060000000007F807F807F800380BF
S11325A0038003800380038003800380038003800F
S11325B0FFFEFFFEFFFE10152A1402007E0EFFBF71
S11325C0FFFC03F00FF07FF87C38703C07DC1FFE43
S11325D07FFE781EF00FE007E007E00FF00FF83EF3
S11325E07FFC3FF81FE011153F1401000E18001F77
S11325F0980019F800187000000000000000F9F0BD
S113260000FBFC00FFFE003C1E00380E00380E00EC
S1132610380E00380E00380E00380E00380E003820
S11326200E00FE3F80FE3F80FE3F8011153F1401E7
S1132630000600000F000003C00001E0000060007D
S113264000000007F0000FF8003FFE003C1E007879
S11326500F00F00780E00380E00380E00380F007D0
S113266080780F007C1F003FFE001FFC0007F00075
S11326701116421401000010000038000078000117
S1132680E00003C00003000000000007F0000FF8A2
S1132690003FFE003C1E00780F00F00780E003803E
S11326A0E00380E00380F00780780F007C1F003F88
S11326B0FE001FFC0007F000111642140100008008
S11326C00001C0000770000E38001C1C0000000050
S11326D000000007F0000FF8003FFE003C1E0078E9
S11326E00F00F00780E00380E00380E00380F00740
S11326F080780F007C1F003FFE001FFC0007F000E5
S113270011153F140100070C000FCC000CFC000C49
S1132710380000000000000007F0000FF8003FFE42
S1132720003C1E00780F00F00780E00380E0038087
S1132730E00380F00780780F007C1F003FFE001F3D
S1132740FC0007F00011153F1401000C18001E3C9A
S1132750001E3C000C180000000000000007F00000
S11327600FF8003FFE003C1E00780F00F00780E0E9
S11327700380E00380E00380F00780780F007C1F73
S1132780003FFE001FFC0007F0000F0F1E140202A2
S1132790038007C007C0038000000000FFFEFFFEA7
S11327A0FFFE00000000038007C007C00380111271
S11327B0361401FE00038003E3800FFF803FFF0017
S11327C03E3E00783F00707F00E0F380E1E380E369
S11327D0C380E783807F07007E1F003FFE007FFCED
S11327E000F7F000E00000E00000121642140000C0
S11327F003000007800001E00000F000003000004A
S11328000000000000FC3F00FC3F00FC3F001C07F0
S1132810001C07001C07001C07001C07001C070005
S11328201C07001C0F001C1F001FFFC00FF7C00770
S1132830E7C0121642140000000800001C00003C0F
S11328400000F00001E000018000000000FC3F00F7
S1132850FC3F00FC3F001C07001C07001C07001C79
S113286007001C07001C07001C07001C0F001C1F8E
S1132870001FFFC00FF7C007E7C012164214000084
S113288000800001C0000770000E38001C1C00000E
S11328900000000000FC3F00FC3F00FC3F001C0760
S11328A0001C07001C07001C07001C07001C070075
S11328B01C07001C0F001C1F001FFFC00FF7C007E0
S11328C0E7C012153F1400000C18001E3C001E3C0B
S11328D0000C1800000000000000FC3F00FC3F005A
S11328E0FC3F001C07001C07001C07001C07001C01
S11328F007001C07001C07001C0F001C1F001FFF03
S1132900C00FF7C007E7C0111D571401F9001000EC
S113291000380000780001E00003C000030000005C
S11329200000FE3F80FE3F80FE3F80780F00380E9F
S1132930003C1E001C1C001E3C000E38000F7800DA
S113294007700007F00003E00003E00001C000018D
S1132950C000038000038000070000FFE000FFE0E8
S113296000FFE000131C541400F9FC0000FC0000FC
S1132970FC00001C00001C00001C00001CFC001FCC
S1132980FF001FFF801F87C01F03C01E01E01C0043
S1132990E01C00E01C00E01E01E01E01C01F87C017
S11329A01FFF801FFF001CFC001C00001C00001CFB
S11329B000001C0000FFC000FFC000FFC000111C8D
S11329C0541401F9060C000F1E000F1E00060C0023
S11329D0000000000000FE3F80FE3F80FE3F807844
S11329E00F00380E003C1E001C1C001E3C000E385C
S11329F0000F780007700007F00003E00003E00018
S1132A0001C00001C000038000038000070000FF34
S1132A10E000FFE000FFE00000111AFCF90B026582
S1132A20059B20FFFC0FFB0CFC0000000B000103C6
S1132A300C0C0B0400E0E0E0E0E0E0C0C0C000C02B
S1132A40C00606060B0206CCCCCCCC8888080E0E39
S1132A500B01FF36363636FFFF6C6CFFFF6C6C6C77
S1132A606C080F0F0B01FE18183F7FC3C0F07E0FD8
S1132A7003C7FEFC1818080C0C0B010070D888D88A
S1132A80730E78CE1B111B0E080A0A0B01003C7E44
S1132A906660307BFFCEFF7B0206060B0406C0C0D7
S1132AA0C0C08080040F0F0B04FD30306060C0C0D4
S1132AB0C0C0C0C0C060603030040F0F0B02FDC046
S1132AC0C06060303030303030306060C0C00808E2
S1132AD0080B01041818FFFF187EE7420A0A140BBA
S1132AE000000C000C000C000C00FFC0FFC00C0028
S1132AF00C000C000C000405050B02FD3030604096
S1132B00800802020B0104FFFF0202020B0400C052
S1132B10C00910200B00FD018001800300030006A2
S1132B200006000C000C0018001800300030006093
S1132B30006000C000C000080C0C0B01003C7E6665
S1132B40C3C3C3C3C3C3667E3C080C0C0B0100188B
S1132B50F8F818181818181818FFFF080C0C0B01AF
S1132B60003C7EC7C303070E1C3870FFFF080C0C23
S1132B700B01003C7E66060E3C3E0703C7FE7C0844
S1132B800C0C0B01000E1E3E366666C6FFFF061FC8
S1132B901F080C0C0B01007F7F60607E7F670303BE
S1132BA0C7FE7C080C0C0B01000F3F7060DCFEE7D5
S1132BB0C3C3E77E3C080C0C0B0100FFFFC30606F1
S1132BC0060C0C0C181818080C0C0B01003C7EE7C2
S1132BD0C3663C7EE7C3E77E3C080C0C0B01003C5B
S1132BE07EC3C3C3C77F3B0306FEF80208080B0479
S1132BF000C0C000000000C0C0040B0B0B02FD307D
S1132C00300000000030306040800909120B0101DF
S1132C10018007801E007800E00078001E00078015
S1132C2001800A060C0B0002FFC0FFC00000000078
S1132C30FFC0FFC00909120B0101C000F0003C00F5
S1132C400F0003800F003C00F000C000070B0B0BCB
S1132C5002007CFEC6060E3C3030003030090D1AEE
S1132C600B01FF3C006600C300CF00DB00DB00DB90
S1132C7000DB00CF80C000C00063003E000C0B16D8
S1132C800BFF003E003F000F001980198019803FA0
S1132C90C03FC030C0F9F0F9F00A0B160B0000FE7B
S1132CA000FF00318031803F003F8030C030C030B1
S1132CB0C0FF80FF000A0B160B00001EC07FC0710E
S1132CC0C0E0C0C000C000C000E00070C07FC01FF2
S1132CD0000A0B160B0000FE00FF80638061C060D9
S1132CE0C060C060C061C06380FF80FE000A0B1634
S1132CF00B0000FFC0FFC030C036C03E003E0036AF
S1132D000030C030C0FFC0FFC00A0B160B0000FF2C
S1132D10C0FFC030C036C03E003E00360030003038
S1132D2000FE00FE000B0B160B00001EC07FC071DE
S1132D30C0E0C0C000C000C7E0E7E070C07FC01FB3
S1132D40800A0B160B0000F3C0F3C0618061807F22
S1132D50807F80618061806180F3C0F3C0080B0BC9
S1132D600B0100FFFF18181818181818FFFF0A0B9A
S1132D70160B00001FC01FC0030003000300030064
S1132D80C300C300C300FE003C000B0B160B000085
S1132D90F7C0F7C0630066006C007C007E0067002B
S1132DA06380F9E0F9E00A0B160B0000FC00FC005C
S1132DB0300030003000300030C030C030C0FFC0C0
S1132DC0FFC00A0B160B0000E1C0E1C073807380E2
S1132DD07F806D806D806D806180F3C0F3C00A0BCD
S1132DE0160B0000E7C0F7C07180798069806D80A0
S1132DF0658067806380FB80F9800A0B160B0000F6
S1132E001E007F807380E1C0C0C0C0C0C0C0E1C0EC
S1132E1073807F801E000A0B160B0000FF00FF80EA
S1132E2061C060C061C07F807F0060006000FC0002
S1132E30FC000A0D1A0B00FE1E007F807380E1C0A7
S1132E40C0C0C0C0C0C0E1C073807F801E403FC00E
S1132E5033800B0B160B0000FF00FF8061C060C0C5
S1132E6061C07F807F00638061C0FCE0FCE0090BEF
S1132E70160B01003D80FF80C380C180F8007F00F5
S1132E800F80C180E180FF00DE000A0B160B0000FA
S1132E90FFC0FFC0CCC0CCC0CCC00C000C000C00E8
S1132EA00C007F807F800A0B160B0000F7C0F7C070
S1132EB061806180618061806180618073803F0096
S1132EC01E000C0B160BFF00F9F0F9F06060606057
S1132ED030C030C0198019800F000F0006000C0BA1
S1132EE0160BFF00F9F0F9F06060666066606F60D1
S1132EF06F6039C039C030C030C00A0B160B0000F7
S1132F00F3C0F3C0618033001E000C001E003300C8
S1132F106180F3C0F3C00A0B160B0000F3C0F3C0CA
S1132F20618033003F001E000C000C000C003F00C9
S1132F303F00080B0B0B0100FFFFC7CE0C183073CA
S1132F40E3FFFF040F0F0B04FDF0F0C0C0C0C0C0CE
S1132F50C0C0C0C0C0C0F0F00910200B01FDC0000B
S1132F60C0006000600030003000180018000C0041
S1132F700C00060006000300030001800180040F1A
S1132F800F0B02FDF0F03030303030303030303064
S1132F9030F0F00807070B0105183C3C6666C3C314
S1132FA00B02040B00FCFFE0FFE00403030B030926
S1132FB0C060300A09120B00003F007F806180016D
S1132FC0807F80FF80C180FFC07DC00A0C180B0089
S1132FD000E000E00060006F007F8071C060C060AE
S1132FE0C060C071C0FF80EF000A09120B00003DF1
S1132FF0807F80E380C180C000C000E1C07FC03F0B
S1133000000A0C180B00000380038001803D807FC0
S113301080E380C180C180C180E3807FC03DC00A5D
S113302009120B00001E007F80E1C0C0C0FFC0FF7A
S1133030C0E0007FC01FC0090C180B01001F803FB7
S1133040803000FF00FF00300030003000300030DE
S113305000FF00FF000A0D1A0B00FC3DC07FC0E317
S113306080C180C180C180E3807F803D8001800376
S1133070803F003E000A0C180B0000E000E00060F6
S1133080006F007F8071806180618061806180F366
S1133090C0F3C0080C0C0B0100181800F8F818183D
S11330A0181818FFFF0710100B01FC0C0C00FEFE93
S11330B006060606060606060EFCF80A0C180B00A1
S11330C000E000E0006000678067806E007C007CA8
S11330D0006E006700E3C0E3C0080C0C0B0100F8AD
S11330E0F81818181818181818FFFF0C09120BFFF5
S11330F000EDC0FFE077606660666066606660F75A
S113310070F7700A09120B0000EF00FF80718061F4
S113311080618061806180F3C0F3C00A09120B00F2
S1133120001E007F80E1C0C0C0C0C0C0C0E1C07F3D
S1133130801E000A0D1A0B00FCEF00FF8071C060B6
S1133140C060C060C071C07F806F0060006000F824
S113315000F8000A0D1A0B00FC3DC07FC0E380C1DB
S113316080C180C180E3807F803D80018001800731
S1133170C007C00A09120B0000F380FFC03CC0382E
S113318000300030003000FF00FF000809090B0187
S1133190007FFFC3F07E1FC3FFFE0A0C180B000064
S11331A0300030003000FF00FF00300030003000FD
S11331B0300030C03FC01F000A09120B0000E78036
S11331C0E780618061806180618063807FC03DC0F1
S11331D00A09120B0000F3C0F3C061806180330060
S11331E033001E001E000C000B09120B0000F1E05E
S11331F0F1E064C06EC06EC07BC03B803180318022
S11332000B09120B0000FBE0FBE031801B000E00F9
S11332101B003180FBE0FBE00A0D1A0B00FCF3C03D
S1133220F3C061806180330033001E001E000C0077
S113323018003800FC00FC000809090B0100FFFF1E
S1133240C60C183063FFFF040F0F0B03FD306060E2
S1133250606060C06060606060606030020E0E0B91
S113326004FDC0C0C0C0C0C0C0C0C0C0C0C0C0C0D9
S1133270040F0F0B03FDC06060606060306060602D
S113328060606060C00803030B010473FFDEFFFF8E
S1133290FFFFFFFFFFFFFFFFFFFFFFFFFFFFFFFF3A
S11332A0FFFFFFFFFFFFFFFFFFFFFFFFFFFFFF0029
S11332B000000B0001030C0C0B04FCC0C000C0C0D8
S11332C0E0E0E0E0E0E0E0080D0D0B010018181864
S11332D03F7FE3C0C0E37F3E18180A0B160B0000C3
S11332E03E007F00630060003000FC00FC00300002
S11332F060C0FFC0FF800809090B0101C3FF7EC342
S1133300C3C37EFFC30A0B160B0000F3C0F3C061F6
S11333108033001E003F000C003F000C003F003FC4
S1133320000210100B04FDC0C0C0C0C0C0C000002B
S1133330C0C0C0C0C0C0C0080E0E0B01FE3F736306
S113334060F8DEC7E37B1F06C6CEFC0602020B0252
S113335009CCCC0B0C180B00000E003F8071C06E22
S1133360C0DB60D860D860DB606EC071C03F800E87
S1133370000608080B0203701878D8D86C00FC0902
S1133380070E0B0001198033006600CC0066003381
S11333900019800904080B0104FF80FF80018001EB
S11333A0800802020B0104FFFF0B0C180B00000E37
S11333B0003F8071C07EC0DB60DB60DE60DF607B6D
S11333C0E070C03F800E000502020B0209F8F80508
S11333D005050B020670888888700A0A140B000021
S11333E00C000C000C00FFC0FFC00C000C0000001F
S11333F0FFC0FFC00607070B020578CC0C18306429
S1133400FC0607070B020578CC0C380CCC780403B7
S1133410030B04093060C00A0D1A0B00FCE780E7B7
S113342080618061806180618063807FC07DC060D5
S113343000600060006000080E0E0B01FE3F6ACAC7
S1133440CACA6A3A0A0A0A0A0A0A3B0203030B04B2
S113345003C0C0C00405050B03FC406030F0E00667
S113346007070B020530F030303030FC0608080B3B
S1133470020378CC8484CC7800FC09070E0B01018C
S1133480CC0066003300198033006600CC000B0CBE
S1133490180B00003000F020306030C03180334021
S11334A0FEC00DC01AC034C067E040C00B0C180B3E
S11334B000003000F020306030C0318033C0FF6045
S11334C00C6018C03180632047E00B0C180B00001F
S11334D07800CC200C6038C00D80CF407EC00DC079
S11334E01AC034C067E040C0070C0C0B02FC18186B
S11334F00018181878E0C0C6FE7C0C0F1E0BFF00E5
S113350018000C00060000003E003F000F000F00F2
S1133510198019803FC03FC030C0F9F0F9F00C0F9A
S11335201E0BFF00030006000C0000003E003F00DD
S11335300F000F00198019803FC03FC030C0F9F060
S1133540F9F00C0F1E0BFF0006000F00198000009D
S11335503E003F000F000F00198019803FC03FC09C
S113356030C0F9F0F9F00C0E1C0BFF001D80370081
S113357000003E003F000F000F00198019803FC07B
S11335803FC030C0F9F0F9F00C0E1C0BFF0019809D
S1133590198000003E003F000F000F0019801980C1
S11335A03FC03FC030C0F9F0F9F00C0F1E0BFF0014
S11335B006000900090006003E003F000F000F004E
S11335C0198019803FC03FC030C0F9F0F9F00B0BEF
S11335D0160B00003FE03FE01E60360037C027C0F6
S11335E07E007E006660EFE0EFE00A10200B00FB37
S11335F01EC07FC061C0C0C0C000C000C000C00009
S113360060C07FC03F0008000C0002001E001C00C8
S11336100A0F1E0B000018000C0006000000FFC07B
S1133620FFC030C036C03E003E00360030C030C05F
S1133630FFC0FFC00A0F1E0B0000030006000C00B1
S11336400000FFC0FFC030C036C03E003E00360060
S113365030C030C0FFC0FFC00A0F1E0B00000C00BA
S11336601E0033000000FFC0FFC030C036C03E0063
S11336703E00360030C030C0FFC0FFC00A0E1C0B35
S11336800000330033000000FFC0FFC030C036C06C
S11336903E003E00360030C030C0FFC0FFC0080FFF
S11336A00F0B010060301800FFFF181818181818C5
S11336B018FFFF080F0F0B0100060C1800FFFF187E
S11336C0181818181818FFFF080F0F0B0100183CE2
S11336D06600FFFF18181818181818FFFF080E0EB8
S11336E00B0100666600FFFF18181818181818FF59
S11336F0FF0A0B160B0000FE00FF80618060C0F81B
S1133700C0F8C060C060C06180FF80FE000A0E1C6B
S11337100B00003B006E000000E7C0F7C071807929
S11337208069806D80658067806380FB80F9800A92
S11337300F1E0B000018000C00060000001E007F86
S1133740806180C0C0C0C0C0C0C0C0C0C061807F34
S1133750801E000A0F1E0B0000030006000C000070
S1133760001E007F806180C0C0C0C0C0C0C0C0C097
S1133770C061807F801E000A0F1E0B00000C001E1B
S113378000330000001E007F806180C0C0C0C0C044
S1133790C0C0C0C0C061807F801E000A0E1C0B0028
S11337A0003B006E0000001E007F806180C0C0C02E
S11337B0C0C0C0C0C0C0C061807F801E000A0E1C93
S11337C00B00003300330000001E007F806180C0C6
S11337D0C0C0C0C0C0C0C0C0C061807F801E000A1D
S11337E00A140B00004080E1C0738037001E001EE5
S11337F0003B007380E1C040800C0D1A0BFFFF00FA
S1133800300F603FC031C06360666066606C607892
S11338106030C03FC06F00C0000A0F1E0B000030B4
S11338200018000C000000FBC0FBC06180618061D7
S11338308061806180618073803F001E000A0F1EDA
S11338400B0000030006000C000000FBC0FBC0617D
S1133850806180618061806180618073803F001E2F
S1133860000A0F1E0B00000C001E0033000000FBBA
S1133870C0FBC06180618061806180618061807310
S1133880803F001E000A0E1C0B00003300330000B2
S113389000FBC0FBC06180618061806180618061E8
S11338A08073803F001E000A0F1E0B0000030006F9
S11338B0000C000000F3C0F3C0618033003F001E21
S11338C0000C000C000C003F003F000A0B160B001C
S11338D000F000E0007F007F8061C060C061C07FB5
S11338E0807F00E000F000090C180B01003C007E12
S11338F0006300630067006E006700618061806997
S113390080EF80E7000A0D1A0B000018000C000677
S11339100000003F007F80618001807F80FF80C1C4
S113392080FFC07DC00A0D1A0B0000030006000CC6
S11339300000003F007F80618001807F80FF80C1A4
S113394080FFC07DC00A0D1A0B00000C001E00335E
S11339500000003F007F80618001807F80FF80C184
S113396080FFC07DC00A0C180B00003B006E0000F5
S1133970003F007F80618001807F80FF80C180FFE5
S1133980C07DC00A0C180B00003300330000003F58
S1133990007F80618001807F80FF80C180FFC07DC7
S11339A0C00A0E1C0B00000C00120012000C0000D8
S11339B0003F007F80618001807F80FF80C180FFA5
S11339C0C07DC00A09120B00007B80FFC0CCC00C74
S11339D0C07FC0FFC0CC00FFC07B800A0E1C0B0060
S11339E0FB3D807F80E380C180C000C000E1C07FD8
S11339F0C03F0008000C0006001E001C000A0D1A3F
S1133A000B000018000C00060000001E007F80E17F
S1133A10C0C0C0FFC0FFC0E0007FC01FC00A0D1AB5
S1133A200B0000030006000C0000001E007F80E174
S1133A30C0C0C0FFC0FFC0E0007FC01FC00A0D1A95
S1133A400B00000C001E00330000001E007F80E10C
S1133A50C0C0C0FFC0FFC0E0007FC01FC00A0C1878
S1133A600B00003300330000001E007F80E1C0C063
S1133A70C0FFC0FFC0E0007FC01FC0080D0D0B01D8
S1133A800030180C00F8F81818181818FFFF080D63
S1133A900D0B01000C183000F8F81818181818FF4E
S1133AA0FF080D0D0B0100183C6600F8F8181818F3
S1133AB01818FFFF080C0C0B0100CCCC00F8F81808
S1133AC018181818FFFF0A0D1A0B0000E180FB807C
S1133AD03E007700C3803F8061C0C0C0C0C0C0C08A
S1133AE0E1C07F801E000A0C180B00003B006E0032
S1133AF00000EF00FF8071806180618061806180DF
S1133B00F3C0F3C00A0D1A0B000018000C000600E5
S1133B1000001E007F80E1C0C0C0C0C0C0C0E1C0C2
S1133B207F801E000A0D1A0B0000030006000C0023
S1133B3000001E007F80E1C0C0C0C0C0C0C0E1C0A2
S1133B407F801E000A0D1A0B00000C001E003300BB
S1133B5000001E007F80E1C0C0C0C0C0C0C0E1C082
S1133B607F801E000A0C180B00003B006E00000052
S1133B701E007F80E1C0C0C0C0C0C0C0E1C07F8063
S1133B801E000A0C180B00003300330000001E0056
S1133B907F80E1C0C0C0C0C0C0C0E1C07F801E0043
S1133BA00A0A140B00000C000C0000000000FFC007
S1133BB0FFC0000000000C000C000C0B160BFFFFF4
S1133BC000300F603FC071E0636066606C6078E055
S1133BD03FC06F00C0000A0D1A0B000018000C0053
S1133BE006000000E780E780618061806180618079
S1133BF063807FC03DC00A0D1A0B000006000C0054
S1133C0018000000E780E780618061806180618046
S1133C1063807FC03DC00A0D1A0B00000C001E001B
S1133C2033000000E780E78061806180618061800B
S1133C3063807FC03DC00A0C180B000033003300C2
S1133C400000E780E780618061806180618063803B
S1133C507FC03DC00A11220B00FC030006000C00CB
S1133C600000F3C0F3C061806180330033001E00A4
S1133C701E000C0018003800FC00FC000A10200B89
S1133C8000FCE000E00060006F007F8071C060C055
S1133C9060C060C071C07F806F0060006000F80089
S1133CA0F8000A10200B00FC330033000000F3C0BE
S1133CB0F3C061806180330033001E001E000C00DD
S1133CC018003800FC00FC00000D15FEFA0901DEA6
S1133CD0042020FFFD0CFC0AFD0000000900010285
S1133CE00909090300C0C0C0C0C08000C0C00504E9
S1133CF004090206D8D8D848070B0B0901FF282865
S1133D0028FE2828FE28282828060C0C0901FF3044
S1133D10307CCCC0F03C0CCCF83030070A0A0901E6
S1133D20006090926C106098242418070808090118
S1133D3000386060307ACCCC76020404090305C0F4
S1133D40C0C040040B0B0902FE306060C0C0C0C09C
S1133D50C0606030040B0B0902FEC060603030307C
S1133D6030306060C005050509020420A8F870D849
S1133D70070707090101101010FE101010030404B6
S1133D800902FE6060C080060101090104FC020210
S1133D9002090300C0C0070C0C0900FE06060C0C47
S1133DA0181830306060C0C0070A0A090100386C76
S1133DB0C6C6C6C6C6C66C38060A0A09020030F072
S1133DC030303030303030FC060A0A09010078CC3B
S1133DD0CC0C0C183060C0FC060A0A09010078CC2F
S1133DE00C0C380C0C0CCC78070A0A0901000C1CCA
S1133DF03C2C4CCC8CFE0C1E060A0A090100FCC0AB
S1133E00C0F8CC0C0C0CCC78060A0A0901003C6002
S1133E10C0D8ECCCCCCCCC78060A0A090100FC8CC6
S1133E200C18181818303030060A0A09010078CC2A
S1133E30CCCC78CCCCCCCC78060A0A09010078CC5E
S1133E40CCCCCCCC7C0C18F0020707090300C0C012
S1133E50000000C0C00309090902FE606000000000
S1133E606060C080080707090001071C70C0701C4F
S1133E7007070404090102FE0000FE080707090100
S1133E8001E0380E030E38E0060909090100F8CCF8
S1133E908C0C383000303007090909010078C49CC3
S1133EA0B4A4B49EC0780909120900007C001C0067
S1133EB036003600220063007F006300F7800809A3
S1133EC009090000FE6363637E636363FE070909F7
S1133ED00901003A66C6C0C0C0C0663C08090909A9
S1133EE00000FC66636363636366FC0809090900F8
S1133EF000FF63636878686363FF080909090000C9
S1133F00FF63636878686060F80909120900003D7E
S1133F10006700C300C000C000CF80C30063003F3F
S1133F2000090912090000F7806300630063007F41
S1133F3000630063006300F780060909090100FCBF
S1133F4030303030303030FC0909120900001F8055
S1133F500600060006000600C600C600C6007C0077
S1133F60090912090000F70066006C0078007C0063
S1133F70660066006300F380080909090000F86020
S1133F80606060636363FF090912090000E38063F2
S1133F9000770077006B006B0063006300F7800913
S1133FA00912090000E7806300730073006B006B63
S1133FB00067006700F3000809090900003C66C3B4
S1133FC0C3C3C3C3663C080909090000FE636363F5
S1133FD0667C6060F8080B0B0900FE3C66C3C3C333
S1133FE0C3C3663C196E090912090000FE00630090
S1133FF06300630066007C0066006300F3800709C9
S1134000090901007ACEC6E07C0EC6E6BC0809099F
S1134010090000FFDBDB18181818183C09091209FD
S11340200000F780630063006300630063006300C3
S113403063003E00090912090000F7806300630071
S113404063003600360036001C001C000909120902
S11340500000F78063006B006B006B007700770053
S113406063006300080909090000E766663C183C20
S11340706666E70A091209FF00F3C0618033003362
S1134080001E000C000C000C003F00070909090188
S113409000FEC6CC18183066C6FE040B0B0902FEDF
S11340A0F0C0C0C0C0C0C0C0C0C0F0070C0C090143
S11340B0FEC0C06060303018180C0C0606040B0BF0
S11340C00902FEF0303030303030303030F005044A
S11340D0040902052070D8880901020900FEFF8046
S11340E0030202090207C0600807070900007C06F2
S11340F0067EC6CE77080A0A090000E060606E7387
S113410063636373EE0807070900003D67C3C0C01B
S1134110633E080A0A0900000E060676CEC6C6C625
S1134120CE770807070900003C66C3FFC0673E0757
S11341300A0A0901001E3030FC3030303030FC08EF
S11341400A0A0900FD77CEC6C6C6CE7606067C09E5
S11341500A14090000E000600060006E0073006350
S113416000630063006300F780060A0A0901003057
S11341703000F03030303030FC050D0D0901FD18F1
S11341801800781818181818181818F0080A0A09C6
S11341900000E06060676C78786C66E7060A0A09DC
S11341A00100F03030303030303030FC09070E0977
S11341B00000DF006D806D806D806D806D80ED800E
S11341C009070E090000EE0073006300630063003A
S11341D06300F7800807070900003C66C3C3C36691
S11341E03C080A0A0900FDEE73636363736E606042
S11341F0F0080A0A0900FD77CEC6C6C6CE760606C2
S11342000F070707090100EE7060606060FC070794
S1134210070901007EC6C07C06C6FC07090909011E
S1134220006060FC60606060663C09070E09000085
S1134230E700630063006300630067003B800907D5
S11342400E090000F78063006300360036001C008E
S11342501C000A070E09FF00E1C06D806D806D80AF
S11342602D0033003300080707090000E7663C18F7
S11342703C66E7090A140900FDE380630063003625
S11342800036001C001C00180018007C00060707FC
S1134290090100FC8C183060C4FC040B0B0902FEFD
S11342A03060606060C06060606030020B0B0903C6
S11342B0FEC0C0C0C0C0C0C0C0C0C0C0040B0B0999
S11342C002FEC0606060603060606060C00603032E
S11342D009010364FC98FFFFFFFFFFFFFFFFFFFFDF
S11342E0FFFFFFFFFFFFFFFFFFFFFFFFFFFFFFFFDA
S11342F0FFFFFFFFFFFFFF000000090001020909A3
S11343000903FEC0C00080C0C0C0C0C0060A0A09BC
S113431001FF30307CCCC0C0CC78303007090909AB
S113432001003C666060F8606066FC0706060901EF
S113433001C67CC6C67CC60A0912090000F3C06126
S11343408033001E003F000C003F000C003F0002C1
S11343500B0B0903FEC0C0C0C0C000C0C0C0C0C0B9
S1134360080B0B0900FF3E6260F08CE3390F064630
S11343707C04020209020890900908100900011C3B
S1134380006300CD80D180D180CD8063001C000506
S11343900707090202701878D86800F807050509AC
S11343A00101366CD86C36070303090102FE0202D0
S11343B0060101090104FC0908100900013E00631B
S11343C000D980D580D980D58063003E00040101E6
S11343D0090208F0040404090205609090600707CC
S11343E0070901011010FE101000FE05060609025F
S11343F0047098183060F8050606090204709830B5
S113440018987003020209030760C0090A1409001E
S1134410FDE700630063006300630067007B806066
S11344200060006000070B0B0901FF7ED49494D454
S113443074141414147E020202090303C0C003049A
S1134440040902FD406020E004060609030460E05C
S1134450606060F005070709020270D888D8700010
S1134460F8070505090101D86C366CD8090A140946
S113447000006000E080610062006500FB0017003E
S11344802B004F808300090A140900006000E080BB
S1134490610062006700FD801180230046000F80E8
S11344A00A0A1409FF0070009840308019009A80AD
S11344B075800B80158027C041800609090901FE1B
S11344C03030003070C0C4CC7C090C1809000018CE
S11344D0000C0000007C001C003600360022006343
S11344E0007F006300F780090C180900000C001815
S11344F00000007C001C0036003600220063007FB0
S1134500006300F780090C180900001C0036000045
S1134510007C001C0036003600220063007F00632C
S113452000F780090C180900001A002C0000007C18
S1134530001C0036003600220063007F006300F791
S113454080090C180900002400240000007C001CD1
S11345500036003600220063007F006300F7800904
S11345600C180900001800240018007E001C0036F6
S1134570003600220063007F006300F780090912FF
S11345800900003F801C801C003D002F006D007C52
S1134590004C80DF80070D0D0901FC3A6EC6C0C0D7
S11345A0C0C0663C10180838080C0C090000180C30
S11345B000FF63636878686363FF080C0C090000FC
S11345C00C1800FF63636878686363FF080C0C09C8
S11345D000001C3600FF63636878686363FF080C9F
S11345E00C090000242400FF63636878686363FF98
S11345F0060C0C090100603000FC303030303030E3
S113460030FC060C0C090100183000FC303030304E
S1134610303030FC060C0C090100386C00FC3030E2
S11346203030303030FC060C0C090100484800FCE6
S113463030303030303030FC080909090000FC66A5
S11346406363F3636366FC090C180900001A002C09
S1134650000000E7806300730073006B006B006769
S1134660006700F300080C0C0900003018003C66D9
S1134670C3C3C3C3C3663C080C0C0900000C180078
S11346803C66C3C3C3C3C3663C080C0C09000038B2
S11346906C003C66C3C3C3C3C3663C080C0C09006E
S11346A0003458003C66C3C3C3C3C3663C080C0C47
S11346B00900002424003C66C3C3C3C3C3663C068C
S11346C0070709010184CC783078CC84080A0A09E8
S11346D00000013E66CBCBD3D3E366BC090C1809BA
S11346E0000018000C000000F78063006300630002
S11346F063006300630063003E00090C18090000B6
S11347000C0018000000F78063006300630063007E
S11347106300630063003E00090C180900001C00DC
S113472036000000F78063006300630063006300E9
S1134730630063003E00090C180900001200120017
S11347400000F7806300630063006300630063009C
S113475063003E000A0C1809FF0006000C0000006C
S1134760F3C06180330033001E000C000C000C0009
S11347703F00080909090000F0607E6363667C60FD
S1134780F00809090900003C66666C6663636BEE19
S1134790080A0A0900003018007C06067EC6CE7797
S11347A0080A0A0900000C18007C06067EC6CE77AB
S11347B0080A0A090000386C007C06067EC6CE771B
S11347C0080A0A0900003458007C06067EC6CE7723
S11347D0080A0A0900002424007C06067EC6CE7757
S11347E0080A0A0900001824187C06067EC6CE773B
S11347F009070E09000077001D8008807F80C8002B
S1134800CD807700080B0B0900FC3D67C3C0C06373
S11348103E10180838080A0A0900003018003C66DF
S1134820C3FFC0673E080A0A0900000C18003C6672
S1134830C3FFC0673E080A0A0900001C36003C6634
S1134840C3FFC0673E080A0A0900002424003C662E
S1134850C3FFC0673E060A0A090100603000F03059
S113486030303030FC060A0A090100183000F030FC
S113487030303030FC060A0A09010070D800F030EC
S113488030303030FC060A0A090100484800F03094
S113489030303030FC080A0A090000EC38CC3E669F
S11348A0C3C3C3663C090A140900001A002C0000A3
S11348B000EE0073006300630063006300F7800888
S11348C00A0A0900003018003C66C3C3C3663C08EA
S11348D00A0A0900000C18003C66C3C3C3663C08FE
S11348E00A0A0900001C36003C66C3C3C3663C08C0
S11348F00A0A0900003458003C66C3C3C3663C0876
S11349000A0A0900002424003C66C3C3C3663C08A9
S11349100707090001181800FF00181808070709FD
S113492000003D66CFDBF366BC090A1409000018D9
S1134930000C000000E7006300630063006300678D
S1134940003B80090A140900000C0018000000E76D
S113495000630063006300630067003B80090A147E
S11349600900001C0036000000E7006300630063D8
S113497000630067003B80090A1409000024002436
S1134980000000E700630063006300630067003B0E
S113499080090D1A0900FD06000C000000E3806385
S11349A0006300360036001C001C00180018007C50
S11349B000080C0C0900FDE0606E73636363736EA2
S11349C06060F0090D1A0900FD120012000000E3F6
S11349D08063006300360036001C001C00180018B9
S11349E0007C0001080D00FE09016102CD20FFFEDC
S11349F00BFE09FE0D008032198980808080808042
S1134A008000802843839090901367874848FC482F
S1134A10FC48481259892078A0A0702828F0201258
S1134A20698944A44810102048548812678760900C
S1134A309060948874381383808080323989204050
S1134A4040808080404020223989804040202020BE
S1134A504040801665854830FC3048145585202038
S1134A60F82020114383706080165181F82133832C
S1134A7040E040027989020204081020408080123C
S1134A806989304884848484844830125989206038
S1134A90A02020202020F81269897884840408301A
S1134AA04080FC126989FC040810380404847812DC
S1134AB06989081828488888FC0808126989FC80D4
S1134AC080B8C40404847812698938408080B8C4EA
S1134AD0848478126989FC04081010202040401254
S1134AE06989788484847884848478126989788450
S1134AF0848C740404087021388840E0400000402D
S1134B00E04011488820702000007060802259899C
S1134B10081020408040201008146484FC0000FC2D
S1134B201259898040201008102040801269897829
S1134B3084840408101000101269897884849CA469
S1134B40AC9480781269893048848484FC84848499
S1134B50126989F0888488F0888488F012698978D9
S1134B608480808080808478126989F08884848439
S1134B70848488F0126989FC808080F0808080FCC5
S1134B80126989FC808080F0808080801269897835
S1134B90848080809C848C7412698984848484FCDD
S1134BA084848484125989F820202020202020F82D
S1134BB01279893E080808080808887012698984EF
S1134BC08890A0C0A09088841269898080808080A9
S1134BD0808080FC0279898282C6AA929282828233
S1134BE01269898484C4A4948C8484841269897825
S1134BF08484848484848478126989F8848484F81D
S1134C0080808080116A8A788484848484A49478DF
S1134C1004126989F8848484F8A0908884126989CC
S1134C20788480807804048478027989FE101010D6
S1134C3010101010101269898484848484848484FC
S1134C407802798982824444442828281002798988
S1134C5082828282929292AA440279898282442830
S1134C60102844828202798982824428101010100C
S1134C7010126989FC04081020408080FC224989B4
S1134C80F080808080808080F0027989808040205C
S1134C901008040202124989F010101010101010AC
S1134CA0F0185383205088017181FE3A228280409B
S1134CB012668678047C848C74126989808080B83A
S1134CC0C48484C4B8126686788480808478126927
S1134CD089040404748C84848C741266867884FC3D
S1134CE080847812698938444040F840404040103C
S1134CF06888748888708078847812698980808054
S1134D00B8C4848484841258882000602020202021
S1134D10F8105A8A08001808080808888870126968
S1134D20898080808890E09088841259896020204E
S1134D302020202020F8027686EC92929292821211
S1134D406686B8C484848484126686788484848461
S1134D5078106888B8C484C4B88080801068887467
S1134D608C848C74040404126686B8444040404029
S1134D701266867884601884781268884040F84007
S1134D80404044381266868888888888741256861B
S1134D9088888850502002768682829292AA441291
S1134DA066868448303048841068888484848C748F
S1134DB0048478126686FC08102040FC2259893845
S1134DC0404020C020404038321989808080808053
S1134DD080808080125989E010102018201010E083
S1134DE018538348A890FFFFFFFFFFFFFFFFFFFF5B
S1134DF0FFFFFFFFFFFFFFFFFFFFFFFFFFFFFFFFBF
S1134E00FFFFFFFFFFFFFF0D008032198980008044
S1134E108080808080801358882070A8A0A0A8700B
S1134E20200279891C22207020202062DC136686EF
S1134E30847848487884027989828244287C107C6A
S1134E401010321989808080800080808080224AFE
S1134E508A609080609090601090602A4282909066
S1134E60037989384492AAA2AA92443814578770C5
S1134E700878887800F80377871224489048241229
S1134E80136484FC040404264181F00379893844C2
S1134E9092AAAAB2AA44381A6181FC274484609079
S1134EA090601357872020F8202000F8164686606B
S1134EB090106080F01646866090201090603A2230
S1134EC082408011678784848484CCB48012698989
S1134ED07CE8E8E86828282828362181C030228226
S1134EE040C016368640C0404040E015468660907B
S1134EF0906000F003778790482412244890027A47
S1134F008A40C0404042E60A121A06027A8A40C029
S1134F1040404CF2020C101E027A8A6090201092DB
S1134F20660A121A061269892000202040808484AF
S1134F3078126A8A20100030488484FC8484126ABF
S1134F408A10200030488484FC8484126A8A3048A1
S1134F500030488484FC8484126A8A64980030484F
S1134F608484FC8484126A8A48480030488484FC1F
S1134F708484126A8A30483030488484FC848402F1
S1134F8079896E9090909CF090909E106B8B7884B1
S1134F90808080808084781020126A8A201000FC2F
S1134FA08080F08080FC126A8A102000FC8080F0EF
S1134FB08080FC126A8A304800FC8080F08080FC8B
S1134FC0126A8A484800FC8080F08080FC125A8A69
S1134FD0402000F82020202020F8125A8A102000B7
S1134FE0F82020202020F8125A8A304800F8202087
S1134FF0202020F8125A8A888800F82020202020B7
S1135000F802798978444242E242424478027A8A38
S113501064980082C2A2928A8682027A8A20100050
S11350207C82828282827C027A8A0810007C82825C
S11350308282827C027A8A1824007C828282828222
S11350407C027A8A6498007C82828282827C027AE0
S11350508A4444007C82828282827C1366868448ED
S113506030304884116B8B04788C9494A4A4A4C429
S11350707880126A8A40200084848484848478122C
S11350806A8A10200084848484848478126A8A3032
S1135090480084848484848478126A8A484800841A
S11350A0848484848478125A8A102000888850204A
S11350B020202012698980F8848484F880808012FA
S11350C0698970888890A0988484B81269892010AE
S11350D00078047C848C7412698908100078047C3C
S11350E0848C7412698930480078047C848C74122E
S11350F0698964980078047C848C741269894848AE
S11351000078047C848C74126A8A304830007804F5
S11351107C848C740276866C127C90926C10688805
S11351207884808084781020126989201000788423
S1135130FC8084781269891020007884FC8084784B
S11351401269893048007884FC808478126989481F
S113515048007884FC8084781259894020006020BB
S1135160202020F81259892040006020202020F8B7
S11351701259896090006020202020F812598990EB
S113518090006020202020F8126A8A483050087865
S11351908484848478126989649800B8C48484847B
S11351A0841269894020007884848484781269890F
S11351B010200078848484847812698930480078C7
S11351C084848484781269896498007884848484CB
S11351D078126989484800788484848478135787CE
S11351E0202000F800202011688804788C94A4C43E
S11351F078801269894020008888888888741269B8
S11352008910200088888888887412698930480049
S113521088888888887412698950500088888888AA
S11352208874106B8B1020008484848C74048478BC
S1135230106A8A8080B8C48484C4B88080106B8B60
S11352404848008484848C7404847801040600FF34
S113525005010301FA20FFFF05FF05FF07004012C7
S113526015458080800080053242A0A0024545A0FB
S1135270F0A0F0A001364640E0C020E040023545F1
S1135280802040802002454540A040A05015124295
S113529080801126464080808080400126468040E0
S11352A040404080023545A040E040A002354540E2
S11352B040E040400122424080043141E01211416B
S11352C080023545202040808002354540A0E0A082
S11352D04002354540C04040E002354540A02040F2
S11352E0E0023545E0204020C0023545A0A0E02082
S11352F020023545E080C020C00235456080C0A052
S113530040023545E02040808002354560A040A041
S1135310C002354540A06020C012144480000080C3
S11353200125454000004080023545204080402052
S1135330033343E000E002354580402040800235DD
S113534045C02040004002354560A0A08060023581
S11353504540A0E0A0A0023545C0A0C0A0C00235D1
S11353604540A080A040023545C0A0A0A0C00235A1
S113537045E080C080E0023545E080C08080023591
S1135380456080A0A060023545A0A0E0A0A0023541
S113539045E0404040E0023545202020A040023551
S11353A045A0A0C0A0A002354580808080E00235E1
S11353B045A0E0E0A0A002354520A0E0A080023591
S11353C04540A0A0A040023545C0A0C08080013661
S11353D04640A0A0A04020023545C0A0C0A0A00225
S11353E0354560804020C0023545E04040404002E1
S11353F03545A0A0A0A0E0023545A0A0A0E0400251
S11354003545A0A0E0E0A0023545A0A040A0A00240
S11354103545A0A0404040023545E0204080E012E0
S11354202545C0808080C002354580804020200210
S11354302545C0404040C005324240A0013141E012
S1135440152242804002344460A0A06002354580A9
S1135450C0A0A0C002344460808060023545206052
S1135460A0A06002344440A0C0600235452040E062
S1135470404001354560A06020C002354580C0A091
S1135480A0A00235454000C040E00136462000207F
S11354902020C002354580A0C0A0A0023545C040F0
S11354A04040E0023444A0E0A0A0023444C0A0A0E4
S11354B0A002344440A0A040013545C0A0C0808073
S11354C001354560A0A06020023444A0C080800261
S11354D0344460C020C002354540E04040200234DE
S11354E044A0A0A060023444A0A0A040023444A080
S11354F0A0E0A0023444A04040A0013545A0A06033
S113550020C0023444E02040E00136462040C04040
S1135510402012154580808080800136468040609E
S113552040408005424250A0FFFFFFFFFFFFFFFF06
S1135530FFFFFFFFFFFFFFFFFFFFFFFFFFFFFFFF77
S1135540FFFFFFFFFFFFFFFFFF070040121545802D
S11355500080808002354540E080E04002354520EF
S1135560406040A002444490606090023545A040F1
S1135570E04040121545808000808001364660C0BE
S1135580A06020C0063141A00146466090D0D09072
S11355906002354560A06000E003434350A050031F
S11355A03242E020043141E003444460F0D060061C
S11355B03141E004334340A04002354540E040001F
S11355C0E0032444C04080C0022545C040804080A0
S11355D01522424080013545A0A0A0C08002454567
S11355E070D0D050501411418012224240800324C4
S11355F04440C0404002354540A04000E0034343DE
S1135600A050A0014646808080507010014646801C
S113561080B0102030014646C0408050B0100235A2
S11356204540004080600235458040A0E0A002353E
S1135630452040A0E0A0023545C040A0E0A00235CE
S11356404560C0A0E0A0023545A040A0E0A002351E
S1135650454040A0E0A002454570A0F0A0B001364E
S11356604640A080A0408002354580E0C080E00232
S1135670354520E0C080E002354560E0C080E002AE
S11356803545A0E0C080E002354580E04040E002BE
S1135690354520E04040E002354540E04040E0022E
S11356A03545A0404040E0024545E050D050E0027E
S11356B0454550A0E0E0A00235458040A0A040024E
S11356C035452040A0A0400235454040A0A04002FE
S11356D0454570E0A0A040023545A040A0A040038D
S11356E03343A040A002354560A0E0A0C002354588
S11356F08040A0A0E00235452040A0A0E00235454E
S11357004000A0A0E0023545A000A0A0E00235457D
S11357102000A0404002354580C0A0C0800136462C
S113572040A0C0A0E080023545804060A060023502
S113573045204060A060023545600060A0600245DD
S11357404550A060A060023545A00060A06002350D
S113575045400060A06002444470B0A0700135452B
S113576040A08060400235458040A0C060023545BD
S11357702040A0C060023545C040A0C0600235454D
S1135780A040A0C06002354580404040E00235455D
S113579020C04040E002354540A04040E00235458D
S11357A0A000C040E0023545A04060A0400245454D
S11357B050A0C0A0A0023545804040A0400235451D
S11357C0204040A040023545400040A040023545FD
S11357D0E00040A040023545A00040A0400235450D
S11357E04000E0004002344460A0A0C0023545807F
S11357F040A0A0600235452040A0A060023545408D
S113580000A0A060023545A000A0A060013646209B
S113581040A0E020C00136468080C0A0C080013690
S113582046A000A0E020C00011241FBECFEFD8E0A6
S1135830DEBFCDBF11E0A0E0B1E0ECEDFEE602C0BA
S113584005900D92AC34B107D9F722E0ACE4B1E095
S113585001C01D92A630B207E1F70E9467360C948E
S11358606C370C94000080E480937C00EAE7F0E05D
S113587080E880838081846080830895AAE7B0E013
S113588090E89C93ECE7F0E09081907F9083908186
S1135890892B80838C9180648C93EAE7F0E080818B
S11358A086FDFDCFEAE7F0E080818F7780838091E9
S11358B07800909179000895E1E6F0E080E8808333
S11358C0108240E060E071E08FEC91E00E947A3356
S11358D008958FEC91E00E94903328E541E164E162
S11358E08FEC91E00E94253563EE79E48FEC91E032
S11358F00E946D322EE031E040E264E28FEC91E0F0
S11359000E94E13128E546E264E18FEC91E00E94D7
S113591025356BE472E58FEC91E00E946D3226E14F
S113592031E047E362E38FEC91E00E94E1318FECD8
S113593091E00E9496338111D0CF08958FEC91E0CD
S11359400E94903363EE79E48FEC91E00E946D3213
S113595028E231E048E16EE08FEC91E00E94E13111
S113596063EE79E48FEC91E00E946D3226E331E03E
S11359704CE264E18FEC91E00E94E1318FEC91E024
S11359800E9496338111DECF08950F931F93CF9316
S1135990DF93CDB7DEB76E970FB6F894DEBF0FBEB8
S11359A0CDBF8C019E012B5D3F4FCE018D5B9F4F80
S11359B0FE01EF59FF4FAE0141585F4FD9011D92CF
S11359C09D01DC011D92CD011192E417F507B1F799
S11359D04AE0BE016F5F7F4FCD57DF4F88819981C9
S11359E0C358D0400E94373789818DA38A818EA302
S11359F08EE28FA38B8188A786E589A7CB57DF4FDB
S1135A0048815981C558D0409A01A9E8B8E80E9454
S1135A10283796958795929582958F7089279F70E0
S1135A208927CF57DF4F8883C158D0406CE3689FE4
S1135A309001699F300D1124421B530BCE57DF4F49
S1135A404883C258D0404AE0BE016D5B7F4F90E06E
S1135A500E943737CE57DF4F8881C258D0404AE082
S1135A60BE016F597F4F90E00E94373725968FAD66
S1135A70259781110BC088E625968FAF259781E085
S1135A80C158DF4F8883CF57D0400AC088E6269696
S1135A908FAF269782E0C158DF4F8883CF57D0401D
S1135AA0A3968FADA397811113C08DE6A3968FAFF4
S1135AB0A39789E6A4968FAFA4978EE6A5968FAF99
S1135AC0A59781E0C058DF4F8883C058D04012C0EA
S1135AD08DE6A4968FAFA49789E6A5968FAFA59778
S1135AE08EE6A6968FAFA69782E0C058DF4F8883D4
S1135AF0C058D04082E6FE01B596D80101900D92BF
S1135B008A95E1F7C8016E960FB6F894DEBF0FBE12
S1135B10CDBFDF91CF911F910F9108958FEC91E04C
S1135B200E9490338FEC91E00E9496338111FACF5A
S1135B3008950F93FC010150040F84A996A99417AA
S1135B4038F0081768F481E0041740F080E006C0DC
S1135B500817D0F081E0041708F080E08823C9F02A
S1135B602150260F83A995A9961738F0281770F4A9
S1135B7081E0261770F080E00CC0281748F081E01F
S1135B80261738F080E005C080E003C081E001C042
S1135B9080E00F910895DB011496ED91FC91159727
S1135BA020E030E061E009950895DB011496ED9161
S1135BB0FC91159720E030E063E009950895DB013E
S1135BC01496ED91FC91159720E030E040E064E0FC
S1135BD009950895DB011496ED91FC91159720E049
S1135BE030E041E064E009950895DB011496ED91FD
S1135BF0FC91159720E030E062E009950895DB01FF
S1135C001496ED91FC91159720E030E065E009953C
S1135C100895DB011496ED91FC91159766E00995C2
S1135C200895AF92BF92CF92DF92EF92FF920F93BB
S1135C301F93CF93DF936C017B018A01D0E0B12CD9
S1135C40AA24A394F801C491D1110BC0CF3F09F445
S1135C504AC04C2FB701C6010E94FF2D811148C0D4
S1135C604BC0CF3F51F44FEFB701C6010E94FF2D47
S1135C70882309F441C0DB2D3BC0CE3FE1F1C03F96
S1135C80A0F5C03E40F04C2F4F70B701C6010E94F2
S1135C90F52DDB2D2DC0C03D40F04C2F4F70B701CA
S1135CA0C6010E94D52DDB2D23C0C03CA0F0B70156
S1135CB0C6010E94DF2DC295C07FCE5FD0E0CE0129
S1135CC00E94F92FB701C6010E94EA2DCE010E945D
S1135CD0F92FDB2D0DC0CC2354F08C2F90E00E94C3
S1135CE0F92FDB2D05C0DA2D03C0DB2D01C0DB2D20
